:020000040800F2
:100000006033002001010008AD2600080924000823
:10001000A9260008C501000851470008000000009B
:10002000000000000000000000000000192A000885
:100030002D04000800000000E92900084D2A0008EE
:100040001B0100081B0100081B0100081B01000820
:100050001B0100081B0100081B0100081B01000810
:100060001B0100081B0100081B0100081B01000800
:10007000A1030008B1030008C1030008D103000870
:10008000E1030008F10300081B0100081B01000840
:10009000C54600081B0100081B0100081B010008E1
:1000A0001B0100081B0100081B0100081B010008C0
:1000B0001B0100081B0100081B0100081B010008B0
:1000C0001B0100081B0100081B0100081B010008A0
:1000D0001B010008792D0008C92D00081D2E0008FD
:1000E0001B0100081B0100081B010008DFF80CD0F1
:1000F00000F02AF800480047E94700086033002074
:100100000648804706480047FEE7FEE7FEE7FEE7B1
:10011000FEE7FEE7FEE7FEE7FEE7FEE7092B000845
:10012000ED000008D2B201E000F8012B491EFBD21D
:1001300070470022F6E710B513460A4604461946F2
:10014000FFF7F0FF204610BD064C074D06E0E068C3
:1001500040F0010394E8070098471034AC42F6D30E
:10016000FFF7C8FFF04A0008104B000870B58C1864
:1001700010F8015B15F0070301D110F8013B2A11BB
:1001800006D110F8012B03E010F8016B01F8016BA8
:100190005B1EF9D12B0705D40023521E0DD401F8A4
:1001A000013BFAE710F8013BCB1A921C03E013F86D
:1001B000015B01F8015B521EF9D5A142D8D30020A2
:1001C00070BD0000FEE7000070B5202858D10A6815
:1001D000002A55D01C468B79002B51D040F65C6626
:1001E00040F62C05C2F20006022C38BF04257059D7
:1001F0004260B3F1080218BF0122120382600A793B
:100200004979002A18BF01225203C2604FF480626C
:10021000012908BF4FF4C062002908BF0A460C211B
:1002200002614161002102688161C161D16821F4EC
:100230000051D16001F072FE08B100BFFEE77059B5
:10024000022C0068C16841F01001C160C16841F42E
:100250000051C16006F5036038BF06F10800006870
:1002600004F078FA705901F08DFD705906F63C01E2
:100270004FF48062022C38BF06F1140101F0E4FF54
:10028000002070BD0020704710B542F2D864C2F261
:10029000000440F67421C2F200012046002202F060
:1002A000EFFE40F28C61C2F20001204602F0E2FE55
:1002B000002010BDF0B581B042F2D8670646C2F208
:1002C00000070D4638463146144602F0D3FE384644
:1002D000214602F0ABFE40F65C60C2F2000000F680
:1002E0002C01022C38BF011D08682A88314602F013
:1002F0004DF8002001B0F0BD2DE9F04381B042F28D
:10030000D863C2F20003D3F8B8321446D3F81422EB
:100310001AB1012001B0BDE8F08342F2D8660F4661
:10032000814601F03F080025C2F20006402910D3A3
:1003300009EB05013046402202F0A2FE304621467C
:1003400002F0E6FE0128F9D030BB4035791BEDD232
:1003500022E0B8F1000F10D009EB050142F2D86598
:10036000C2F200052846424602F08AFE284621468F
:1003700002F0CEFE0128F9D00EE042F2D866C2F2B9
:10038000000630464946002202F07AFE30462146F9
:1003900002F0BEFE0128F9D001B0BDE8F0830000F4
:1003A00080B542F64C30C2F2000000F0D7F880BDB4
:1003B00080B542F60430C2F2000000F0CFF880BDF4
:1003C00080B542F62C20C2F2000000F0C7F880BDD4
:1003D00080B542F6E410C2F2000000F0BFF880BD24
:1003E00080B542F67420C2F2000000F0B7F880BD7C
:1003F00080B542F6BC20C2F2000000F0AFF880BD2C
:10040000B0B5D0E900CED0E91040012505FA00F0E2
:1004100060600846CCF80430BEF1100F04BF1046EF
:100420000A46CCF80800CCF80C20B0BD704700009C
:10043000EFF3108072B600BF4FF47A7000F034FB17
:10044000FAE70000B0B54FF2E871C1F6FF71086835
:100450008A68801808BFB0BD40F23C25C2F2000592
:100460004C68A91C082201F0D1FF05F112012046B9
:10047000042201F0CBFFB0BD0146406A022812D130
:100480000868D1E910C3026822F00E020260026817
:1004900022F001020260012000FA03F2CCF80420ED
:1004A0004862002002E00420C863012000220A62A2
:1004B0007047000080B5416A022923D102681168A3
:1004C00021F00E0111602F211368C4F202018A424B
:1004D00040F20401C4F2020123F00103136016DDAF
:1004E0003023C4F202039A421DD04423C4F2020313
:1004F0009A421BD05823C4F202039A421BD14FF4F4
:10050000803320E00421C1630121084680BD082317
:10051000C4F202039A420CD01C23C4F202039A4292
:1005200009D110230FE04FF480730CE04FF4805397
:1005300009E0012307E001F1680C4FF08073624588
:1005400008BF4FF480130B60826B0123002101620E
:1005500043620AB190470021084680BD10B501688A
:10056000D0E910CEDCF800200B685C0727D5042406
:1005700004FA0EF4144022D00A68920603D40A68E2
:1005800022F004020A6002682F21C4F202018A42AA
:1005900040F20401C4F2020157DD3023C4F2020329
:1005A0009A426AD04423C4F202039A4268D0582384
:1005B000C4F202039A4268D14FF480236DE09C0795
:1005C00029D5022404FA0EF4144024D00A689206B5
:1005D00005D40A6822F00A020A6001214162026819
:1005E0002F21C4F202018A4240F20401C4F2020146
:1005F00037DD3023C4F202039A4254D04423C4F2BC
:1006000002039A4252D05823C4F202039A4252D1B2
:100610004FF4003357E01B0758BF10BD082303FAFF
:100620000EF31A4010D00A68002322F00E020A606E
:10063000012202FA0EF1CCF80410C263416B03628E
:100640000029426218BF884710BD0823C4F2020384
:100650009A4218D01C23C4F202039A4215D14023B7
:100660001BE00823C4F202039A4222D01C23C4F2E6
:1006700002039A421FD1202325E04FF480630CE04F
:100680004FF4804309E0042307E001F168044FF0D0
:100690008063A24208BF4FF480030B60016B002906
:1006A000D2D0884710BD4FF400730CE04FF40053D4
:1006B00009E0022307E001F168044FF00073A24251
:1006C00008BF4FF400130B60C16A002200290262C8
:1006D000BAD0884710BD0000014600284FF0010045
:1006E00008BF70472DE9F0470A684FF6F873CBF65C
:1006F000FD7302EB030C4CF6CD43CCF6CC43ACFBC4
:10070000033C6FF00307002601F10C0A07EA9C077F
:10071000C4F20206D1E9013E9AE83004D1E9069814
:10072000C1E91067176843F6F076B7433B4343EAE5
:100730000E0323432B4343EA0A0343EA090343EA34
:10074000080313600022CA63C1E908200020BDE845
:10075000F04770472DE9F04F81B00446406A022807
:1007600023D120680068800624D440F26C082068F9
:1007700040F22F0916468A46C4F20208C4F2020962
:10078000F9B1484531DD3021C4F20201884244D03C
:100790004421C4F20201884242D05821C4F202012D
:1007A000884242D14FF4802554E00420E0630020C9
:1007B000206202E04FF48070E063012001B0BDE8E8
:1007C000F08F48451DDD3021C4F20201884233D04C
:1007D0004421C4F20201884231D05821C4F20201FE
:1007E000884231D14FF4003534E00821C4F20201CF
:1007F000884218D01C21C4F20201884215D140253C
:1008000028E00821C4F2020188421BD01C21C4F256
:100810000201884218D120251CE04FF4806519E0C0
:100820004FF4804516E0042514E04FF08065404504
:1008300008BF4FF480050DE04FF400750AE04FF457
:10084000005507E0022505E04FF00075404508BF60
:100850004FF4001500F04EFA58F86C1C29421AD0DB
:100860002068BAF1000F62D0484574DD3021C4F22F
:100870000201884200F097804421C4F202018842BC
:1008800000F094805821C4F20201884240F0938025
:100890004FF4802195E0074606F1010B04E000BF0C
:1008A00058F86C0C2842DBD158F86C0C216849458B
:1008B00012DD3022C4F20202914219D04422C4F265
:1008C0000202914217D05822C4F20202914217D17B
:1008D0004FF400211AE000BF0822C4F20202914244
:1008E0000CD01C22C4F20202914209D180210DE0F9
:1008F0004FF400610AE04FF4004107E0082105E0F1
:1009000041454FF0006108BF4FF4000101423AD168
:10091000BBF1000FC4D026B100F0ECF9C01BB0420F
:10092000BED9E06B40F02000E063012035E048458F
:100930001DDD3021C4F20201884245D04421C4F2B9
:100940000201884243D05821C4F20201884243D1B7
:100950004FF4003146E00821C4F20201884228D059
:100960001C21C4F20201884225D1402129E008213E
:10097000C4F2020188422DD01C21C4F20201884237
:100980002AD120212EE0D4E91012012000FA02F22F
:100990004A60E16B41F00101E1630021C4E9081004
:1009A00001B0BDE8F08F4FF480610AE04FF4804160
:1009B00007E0042105E04FF08061404508BF4FF497
:1009C000800148F8681C11E04FF400710AE04FF410
:1009D000005107E0022105E04FF00071404508BFDB
:1009E0004FF40011012048F8681C6062002020626A
:1009F00001B0BDE8F08F0000B0B50446006A0128E0
:100A00001CD0606A01250128256215D1022000252D
:100A10006062E563D4F800C0DCF8000020F001005B
:100A2000CCF800002046FFF7EBFC2068016841F09D
:100A3000010101602846B0BD002020620220B0BD47
:100A400010B50446006A01281ED0606A4FF0010C00
:100A50000128C4F820C015D1022060620020E063A4
:100A6000D4F800C0DCF8000020F00100CCF8000051
:100A70002046FFF7C5FC2068226B016832B141F0C7
:100A80000E0109E000202062022010BD21F00401C7
:100A90000160016841F00A0101602068016841F0CD
:100AA00001010160002010BDB0B5044600F022F93C
:100AB000054640F26020C2F200000068611C18BFC9
:100AC000044400BF00F016F9401BA042FAD3B0BDA9
:100AD0002DE9F04F84B00E680290002E00F00181E5
:100AE00040F2004741F2004202984FF6FF7EC4F206
:100AF0000107C4F20102042300240125C1F2100EF3
:100B00004FF0000A4FF00009904208BF0323009302
:100B10000AE000BF01250E680AF1010A36FA0AF25E
:100B200004F1040400F0DD8005FA0AFB16EA0B0864
:100B3000F1D04A68724511DC122A54D80298DFE8D5
:100B400002F0350A434753535353535353535353AC
:100B50005353534A4E00D1F80C9045E04FF6FF73C3
:100B6000C1F221039A4210DC0023C1F21103029862
:100B70009A421BD00023C1F212039A4216D00023DE
:100B8000C1F221039A4211D02EE00023C1F22203C8
:100B900002989A420AD00023C1F231039A4205D04A
:100BA0000023C1F232039A421ED100BF8A6842B1CB
:100BB000012A14BFC0F814B0C0F810B04FF00809F3
:100BC00012E04FF004090FE0CA6802F108090BE0D7
:100BD0004FF0000908E0CA6802F1040904E0CA689D
:100BE00002F10C0900E0029822460346B8F5807F26
:100BF00024BF203A04331D684FF00F0C0CFA02F6A4
:100C0000B54309FA02F22A431A60CA79D2067FF57F
:100C100081AF41F21803CDF80490C4F202031A68C0
:100C2000F34642F001021A601A684FEA9A0E02F087
:100C300001020392039AA7F57E72B94652F82E304C
:100C400004F00C0740F600060CFA07F5C4F20106A2
:100C5000B04223EA050C10D040F60043C4F2010371
:100C600098420CD041F20003C4F201039842009B69
:100C70004FF0010508BF022303E0002300E0012339
:100C80000125BB4043EA0C0342F82E304E684F4624
:100C9000F203D9F8002054BF22EA080242EA08020F
:100CA000DDF804903A607A68B30354BF22EA080280
:100CB00042EA08027A60F302BA6854BF22EA0802E4
:100CC00042EA0802B30240F20C43BA60C4F20103E4
:100CD000DE461A6854BF22EA080242EA08021A6095
:100CE00019E704B0BDE8F08F002A08BF09040161CC
:100CF0007047000042F65C70C2F200000068704766
:100D000040F2602042F65C71C2F20000C2F20001C3
:100D100000680A68104408607047000080B542F21D
:100D20000000C4F20200016841F0100101600320DC
:100D300000F066F8002000F005F800F02BF8002025
:100D400080BD0000B0B540F26022C2F2000240F265
:100D50001C011268C2F200014FF47A730968B3FBF8
:100D6000F2F20446B1FBF2F1084601F003F80F2C51
:100D70004FF001050CD858B94FF0FF302146002242
:100D8000002500F02DF840F26420C2F2000004605B
:100D90002846B0BD82B041F21800C4F202000168DA
:100DA000022241F001010160016801F0010101919D
:100DB0000199416841F080514160406800F08050E5
:100DC000009000980420C4F20100016862F31A61E7
:100DD000016002B07047000080B503F0CBFC80BD1D
:100DE00070B514460D46064603F0D4FC294622464B
:100DF00001F05EFC0146304603F0D4FC70BD0000FB
:100E000080B503F0E1FC80BD80B501F0070C0CEB70
:100E10008C0C00EBCC0C0CF1280C01EB810E0906BC
:100E200000EBCE0058BF00F5B47C4AB101208CF82D
:100E30000C00180CACF80A000020ACF8083080BD9B
:100E400000208CF80C000020ACF8063080BD0000BB
:100E50007047000080B501EB8102D0F8EC3200EB66
:100E6000C200C26B184602F061FB80BD80B501EB89
:100E70008102D0F8EC3200EBC200D0F87C21184699
:100E800002F0B6FB80BD000010B50446080601F074
:100E9000070000EB800104EBC10205D402F5B47138
:100EA000002382F8693104E0012302F1280182F86D
:100EB0002930D4F8A8220870012A04BF022010BDEE
:100EC00020680122C4F8A82202F0D8FF0020C4F84C
:100ED000A80210BDB0B50446406801F00F0282427E
:100EE00084BF0120B0BD080601F0070000EB8001BF
:100EF00004EBC10205D402F5B471002382F8693114
:100F000004E0012302F1280182F82930D4F8A82254
:100F10000025012A8D70087004BF0220B0BD206832
:100F20000122C4F8A82203F049F82846C4F8A852C0
:100F3000B0BD0000B0B500685304B0F8504091F85F
:100F400000E048F2C00C04EBCE0400EB440316D4DE
:100F5000B3F80C448B696FF39F241B1B38BF00232D
:100F60008B611AD9520624D430F82E2040F60F7324
:100F70001A4042EA0C0220F82E20DCB93BE0B3F81C
:100F800004448B696FF39F241B1B38BF00238B61C4
:100F900013D952061DD434BB2DE030F82E3043F661
:100FA0000F752B400CF5FE556B4020F82E30520685
:100FB000DAD504B34B694A8917E030F82E3043F68E
:100FC0000F752B400CF5FE556B4020F82E30520665
:100FD000E1D530F82E2040F60F731A4042EA0C0299
:100FE00020F82E203CB14B690A891946234603F0AC
:100FF00075FB2046B0BD2046B0BD0000F0B581B005
:101000000446006816460D46B0F85020097873066D
:1010100002EBC10200EB42022FD4B2F80C24AB6900
:101020006FF39F229B1A38BF0023AB6154D973041E
:1010300009D430F8213040F60F773B404CF280075E
:101040003B4320F8213095F82430012B40F0F1800B
:10105000D5E904E7D5E9076307EB020C16447345AD
:10106000C5F814C0EE615DD2002B00F08480002230
:101070009E462A6285F8242081E0B2F80424AB69F8
:101080006FF39F229B1A38BF0023AB6137D97304DB
:1010900009D530F8213040F60F7633404CF2800607
:1010A000334320F8213095F82430012B40F0C180E3
:1010B000D5E90436D5E9077E06EB020CBE189E453D
:1010C000C5F814C0EE6131D20026BEF1000F85F8DC
:1010D00024602ED196462DE02046FFF7BBFE70041B
:1010E00000F1A7802068297840F60F7330F821209E
:1010F0001A404CF280031A4320F8212099E0204640
:10110000FFF7A8FE700440F194802068297840F62B
:101110000F7330F821201A404CF280031A4320F854
:10112000212086E0A3EB0E022A6228E0AEEB030644
:101130009E462E626A78012A14D0002A5ED10901E7
:101140000431B0F850200144BEF1000F01F5806178
:1011500036D0BEF13E0F43D80EF0010303EB5E0321
:101160009B024AE00901B0F85020043101441144C7
:10117000A1F800E442E0002385F8243096466A781E
:10118000012A14D0002A4ED109010C31B0F85020A8
:101190000144BEF1000F01F5806119D0BEF13E0F90
:1011A00033D80EF0010303EB5E039B023AE0090122
:1011B000B0F850200C3101441144A1F800E432E0B1
:1011C000535A23F4F8435352535A43F4004314E060
:1011D000535A23F4F8435352535A43F4004321E043
:1011E0004FEA5E134FF0FF365FEACE6708BF06EBAB
:1011F0005E134FF4004646EA832353522A891FFAAE
:101200008EF3614603F08EFA13E04FEA5E134FF05F
:10121000FF365FEACE6708BF06EB5E134FF4004669
:1012200046EA832353526A891FFA8EF3614603F01C
:1012300079FA2068297840F63F7330F821201A4067
:1012400048F2B0035A4020F8212001B0F0BD000060
:1012500001F0070101EB810100EBC100D0F884012E
:1012600070470000B0B50546080601F0070000EB26
:10127000800105EBC10C05D40CF5B47100248CF889
:10128000694104E001240CF128018CF829404C78D4
:101290000870002C0A61CB7018BFC881022B04BFF4
:1012A00000200871D5F8A802012804BF0220B0BDB3
:1012B00028680122C5F8A82202F0B4FC0020C5F875
:1012C000A802B0BD10B501F0070C0CEB8C0100EBCF
:1012D000C10E00680EF5B4710024CEF87C21CEF862
:1012E0008031CEF884418EF869418EF868C102F0F1
:1012F000BFFE002010BD0000B0B50446406801F0FC
:101300000705854284BF0120B0BD080609D401EB62
:10131000810004EBC00000F5B471002280F869215F
:1013200008E005EB850004EBC000012200F1280174
:1013300080F82920D4F8A802012201288A700D70B3
:1013400004BF0220B0BD2068C4F8A82202F076FED7
:1013500025B9206804F52D7102F02EFE0020C4F896
:10136000A802B0BD80B501F0070C0CEB8C0100EBBE
:10137000C10101F828CF4FF0010C01F1140781F8E9
:1013800024C04FF0000E87E80C4000680B6281F823
:1013900001C002F06DFE002080BD0000B0B584B039
:1013A0000546006803F096F9000402D5284601F0CE
:1013B00095F9286803F08EF940050DD52868B0F836
:1013C000441021F48061A0F84410284600F03CF954
:1013D0002846002100F056F9286803F07BF9400404
:1013E00006D52868B0F8441021F48041A0F84410D4
:1013F000286803F06FF9800406D52868B0F8441017
:1014000021F40051A0F84410286803F063F9C004E7
:1014100016D52868B0F8401021F00401A0F840105B
:10142000B0F8401021F00801A0F84010284600F064
:101430001DF92868B0F8441021F48051A0F8441038
:10144000286803F047F9000542D528686FF00102CB
:10145000011F684631F8043F841802320E2A638067
:10146000F8D12968B1F8402042F00102A1F84020EB
:10147000B1F8402022F00102A1F84020B1F8442048
:101480005205FBD5B1F844206FF0010322F48062CD
:10149000A1F844200A1F00BFC418648802330E2B31
:1014A00022F8044FF8D1B1F8400040F00800A1F84C
:1014B0004000B1F8440020F40060A1F84400B1F805
:1014C000400040F00400A1F84000284600F012F966
:1014D000286803F0FFF8800509D52868B0F84410A3
:1014E00021F40071A0F84410284600F0C5F82868DF
:1014F00003F0F0F8C00506D52868B0F8441021F4D0
:101500008071A0F8441004B0B0BD0000F0B585B003
:10151000F8B10446D0F8AC0228B90020C4F8A802FB
:10152000204600F06FF80320C4F8AC02206802F0F7
:1015300039FD94E82F50D4E907678DE82050CDE9B4
:10154000036702F099FC30B10220C4F8AC02012517
:1015500054E0012552E020680021002503F0D8F86E
:101560006168B1B1616801200023002203EB8303AD
:1015700004EBC30787F82820D3B20132FB86D3B22D
:10158000994287F8290087F82B50C7E90E553D642A
:10159000ECD8A9B100200023002200BF03EB830395
:1015A00004EBC30787F868210132D3B2994287F868
:1015B000690187F86B01C7E95E00C7F88001EDD8C3
:1015C00004F10807D4E9056520688CCFD4E907CE7B
:1015D000CDE9007602AE86E8205002F0D5FC20B1BD
:1015E0000220C4F8AC02012508E00025012084F89F
:1015F0002450C4F8AC02206802F0C4FC284605B0B0
:10160000F0BD000080B582B0006845F60041C4F22C
:101610000001884201D002B080BD41F21C00C4F23A
:1016200002000168002241F400010160006800210D
:1016300000F40000019001981420FFF7D1FB142062
:10164000FFF7CAFB02B080BD10B5044680680228CF
:1016500018BFFEF7EDFED4F8EC02012102F0D4F839
:10166000D4F8EC0202F08EF810BD000080B5D0F87E
:10167000EC0202F0B1F880BD80B5D0F8EC0202F0C7
:10168000B5F880BD10B50446D0F8A802012804BF03
:10169000022010BD0120C4F8A80284F8241020689C
:1016A00003F038F80020C4F8A80210BD80B5D0F8C7
:1016B000EC2200F52D71104602F0B2F880BD00005A
:1016C00010B50446D0F8A802012804BF022010BDBE
:1016D00020680121C4F8A81202F0EAFF2046012187
:1016E000FFF7B6FB206802F04BFC0020C4F8A8020C
:1016F00010BD000010B50446D0F8EC0202F0D0F89E
:10170000A069002808BF10BD4EF61050CEF20000B0
:10171000016841F00601016010BD00002DE9F041B3
:1017200082B00446007841F21C06C007C4F20206EB
:101730004AD0306810F0805808D1306840F08050AE
:101740003060306800F080500190019847F2000747
:10175000C4F200073868C00512D4386840F48070BD
:101760003860FFF7C7FA05463868C00508D4FFF7A8
:10177000C1FA401B6428F7D9032002B0BDE8F0810C
:10178000706810F4407012D0616801F440718842B2
:101790000DD0706840F24042C4F24222012320F48E
:1017A000407113600023C0071360716029D1706815
:1017B000616820F440700843B8F1000F706003D1F5
:1017C000306820F0805030602068810707D556F8D7
:1017D000181CA26821F44041114346F8181CC006A9
:1017E00003D4002002B0BDE8F08156F8180CE1687F
:1017F00020F48000084346F8180C002002B0BDE831
:10180000F081FFF777FA054641F288377068800764
:10181000CDD4FFF76FFA401BB8424FF00300F5D963
:10182000ECE700002DE9F04381B0002800F089804A
:1018300042F20008C4F202080446D8F800000D463F
:1018400000F0070088420CD2D8F8000020F0070012
:101850002843C8F80000D8F8000000F00700A842AC
:101860006FD1206841F204098107C4F2020917D53B
:10187000410705D5D9F8001041F4E061C9F800101E
:10188000010705D5D9F8001041F46051C9F80010DE
:10189000D9F80010A26821F0F0011143C9F8001036
:1018A000C00745D1D8F8000000F00700A8420CD9C5
:1018B000D8F8000020F007002843C8F80000D8F846
:1018C000000000F00700A8423BD12068410707D57F
:1018D000D9F80010E26821F4E0611143C9F8001062
:1018E000000708D5D9F80000216920F4605040EACB
:1018F000C100C9F8000000F079F8D9F8001044F6EA
:10190000D622C1F30311C0F60002515C40F21C0262
:1019100020FA01F140F26420C2F200000068C2F235
:1019200000021160FFF70EFA002001B0BDE8F0835D
:101930006068022809D0012829D159F8041C8903BC
:1019400007D4012001B0BDE8F08359F8041C8901D7
:10195000F7D5D9F8001021F003010843C9F80000B9
:10196000FFF7C8F9064641F2883700BFD9F80000F2
:10197000616800F00C00B0EB810F93D0FFF7BAF96B
:10198000801BB842F2D9032001B0BDE8F08359F8BA
:10199000041C8907D5D5DCE740F21C00C2F2000028
:1019A0000068704780B5FFF7F7FF41F20401C4F209
:1019B0000201096844F6E622C1F30221C0F60002E2
:1019C000515CC84080BD000080B5FFF7E5FF41F2E3
:1019D0000401C4F20201096844F6E622C1F3C221FF
:1019E000C0F60002515CC84080BD000041F2040C0A
:1019F000C4F2020CDCF8003003F00C00082841F2BD
:101A00000020C0F27A0018BF7047C3F383420AA1D6
:101A10008A5CD90305D440F60010C0F23D00504363
:101A20007047DCF8001008A3C1F34041595C5043F3
:101A3000B0FBF1F0704700BF020304050607080978
:101A40000A0B0C0D0E0F1010010200002DE9F041E1
:101A500082B0002800F0C4800446007841F20006FD
:101A6000C007C4F2020643D0706800F00C000428DE
:101A700017D0706800F00C00082802D17068C0030D
:101A80000FD465682DB1B5F5A02F10D0B5F5803F06
:101A900011D0306820F480303060306820F480202D
:101AA0000CE03068800323D5606808BB98E030689C
:101AB00040F480203060306840F480303060FFF7C0
:101AC00019F9002D054610D03068800310D4FFF7B7
:101AD00011F9401B6428F7D904E100BFFFF70AF9A8
:101AE000401B64284FF0030077D830688003F5D49A
:101AF0002078800718D5706810F00C0F07D0706838
:101B000000F00C00082826D17068C00323D4306888
:101B1000800702D52069012862D13068616920F010
:101B2000F80040EAC1003060207800073DD5A06988
:101B300038B30020C4F242200121C0F88014FFF71E
:101B4000D9F80546706A80072DD4FFF7D3F8401BFB
:101B50000228F7D9C6E02069002840F20000C4F24C
:101B6000422000F0968001210160FFF7C3F805468E
:101B700030688007D1D4FFF7BDF8401B0228F7D9A1
:101B8000B0E00020C4F242200021C0F88014FFF72A
:101B9000B1F80546706A800707D5FFF7ABF8401B20
:101BA0000228F7D99EE000F021FF207840071BD4DF
:101BB000E5698DB1706800F00C00082847D1012D4F
:101BC0000ED07068216A00F480328A4208D1616ABE
:101BD00000F47010884203D1002002B0BDE8F0810B
:101BE000012002B0BDE8F081F06910F0805808D102
:101BF000F06940F08050F061F06900F08050019091
:101C0000019847F20007C4F200073868C00510D4F5
:101C1000386840F480703860FFF76CF8054600BF04
:101C20003868C00505D4FFF765F8401B6428F7D96C
:101C300058E0E5681DB1052D3CD0012D3ED0306A3D
:101C400020F001003062306A20F0040039E0002703
:101C5000C4F2422700203866FFF74CF8022D0546F3
:101C60000CD100BF3068800154D5FFF743F8401B0A
:101C700002284FF00300F5D9AFE700BF30688001BC
:101C8000AAD5FFF737F8401B02284FF00300F5D91B
:101C9000A3E700210160FFF72DF8054630688007B3
:101CA0007FF542AFFFF726F8401B02284FF00300F4
:101CB000F4D992E7306A40F004003062306A40F0B4
:101CC00001003062FFF716F8002D054641F2883713
:101CD00014D000BF306A800713D4FFF70BF8401B05
:101CE000B842F7D9032002B0BDE8F081FFF702F84F
:101CF000401BB8424FF003003FF66FAF306A8007D9
:101D0000F4D4B8F1000F7FF453AFF06920F08050A5
:101D1000F0614DE7206AB0F5803F05D17168A26897
:101D200021F40031114371607168626A21F4741109
:101D300010430843706001203866FEF7DBFF04465D
:101D4000306880013FF548AFFEF7D4FF001B022842
:101D50004FF00300F4D940E74EF21001CEF200013B
:101D60000A68042822F0040208BF04320A6070479F
:101D70007047000080B500F051FE80BD80B5FFF7D0
:101D8000F7FF80BD10B5044600684169E26B212A67
:101D90000ED111F080010BD0416921F08001416129
:101DA000206B002818BFFEF767FB204600F02EFFCF
:101DB00020684169226C222A0ED111F040010BD01B
:101DC000416921F040014161606B002818BFFEF7B6
:101DD00053FB204600F002FF002010BDB0B542F6D4
:101DE00084650446C2F20005FFF7CCFF40F65C6054
:101DF000C2F2000000F63C01AC4208BF00F1140141
:101E000020464FF4806200F01FFAB0BD10B50268A2
:101E100004461068D168536900F02F02202A01F0AF
:101E2000200204D11AB1204600F0F8FE10BD5FEA8E
:101E3000007C1EBF03F0010E01F4907313EB0E0340
:101E40000DD10840010606D4400658BF10BD2046FB
:101E500000F0D0FE10BD204600F066FF10BDC307A5
:101E600018BF11F4807302D1430706D40CE0636CF1
:101E700043F001036364430706D5BEF1000F03D0AE
:101E8000636C43F002036364830706D5BEF1000F61
:101E900003D0636C43F004036364BCF1000F06D508
:101EA00052EA0E0203D0626C42F008026264626C75
:101EB000002ACFD00840800602D5204600F0AEFEB2
:101EC00020684069616C00F0400001F00801401892
:101ED0001DD0204600F082FE20684169490612D5D7
:101EE000416921F040014161606B60B142F60D3102
:101EF000C0F600018163FEF7DDFA0028AAD0606B0E
:101F0000816B884710BD2046FFF768FF10BD204653
:101F1000FFF764FF0020606410BD0000002804BFCC
:101F20000120704710B50446C06B20B90020A063A3
:101F3000204600F01DF82420E0632068C16821F4E9
:101F40000051C160204600F0A7FE2068016921F41D
:101F500090410161416921F02A014161C16841F468
:101F60000051C160002020216064E163216410BD44
:101F70002DE9F04186B000270597CDE903770446A7
:101F8000006844F20041C4F200018842029778D010
:101F900044F60001C4F20001884200F0D98043F603
:101FA0000001C4F20101884240F04B8141F2180067
:101FB000C4F20200016840F6000541F4804101606E
:101FC0000168C4F2010501F48041019101990168A1
:101FD00002AE41F004010160006840F21C0800F00C
:101FE0000400019001984FF40070029002200390C9
:101FF0000320059028463146C4F20208FEF768FD2A
:102000004FF480600290002728463146CDE90377DF
:10201000FEF75EFD42F6E41508F13C00C2F2000551
:10202000802620214FF40052C5E900072846C5E963
:102030000276C5E90477C5E90612FEF74DFB0028D4
:1020400018BFFEF7F5F96563AC6242F62C2508F17E
:102050002800C2F20005102185E883002846C5E962
:102060000367C5E90577EF61FEF736FB002800F04E
:10207000D980FEF7DDF942F62C252526C2F20005AF
:10208000D5E041F21800C4F20200416840F60005B4
:1020900041F4003141604168C4F2010501F40031AE
:1020A00001910199016802AE41F0040101600068EC
:1020B00040F21C0800F004000190019804200290F6
:1020C000022003900320059028463146C4F20208FE
:1020D000FEF7FEFC0820CDE90207284631460497AA
:1020E000FEF7F6FC42F6742508F15000C2F2000536
:1020F000802620214FF40052C5E900072846C5E993
:102100000276C5E90477C5E90612FEF7E5FA00286C
:1021100018BFFEF78DF96563AC6242F6BC2508F185
:102120006400C2F200051021002285E8470028461D
:10213000C5E90422C5E90622FEF7CEFA002873D0CD
:10214000FEF776F942F6BC252626C2F200056EE0BF
:1021500041F21800C4F20200416802AE41F480214D
:102160004160416840F21C0801F48021019101990D
:102170000168C4F2020841F00801016000683146BC
:1021800000F00800019001984FF480600290022056
:1021900003900320059040F60000C4F2010000F512
:1021A00080652846FEF794FC4FF4006002900027FB
:1021B00028463146CDE90377FEF78AFC42F604351E
:1021C00008F11400C2F20005802620214FF40052CD
:1021D000C5E900072846C5E90276C5E90477C5E9DF
:1021E0000612FEF779FA002818BFFEF721F9656399
:1021F000AC6242F64C35C2F200051020C5E9008001
:102200002846C5E90276C5E90477C5E90677FEF7F1
:1022100063FA58B1FEF70CF942F64C352726C2F2A4
:10222000000504E0252602E0262600E027263046A9
:10223000002100222563AC62FEF7D2FD3046FEF796
:10224000CBFD06B0BDE8F08170B582B00546006CEC
:10225000202808D113460A4639B143B1A86B01289A
:1022600007D1022436E0022434E0012432E00124C4
:1022700030E00120A86300242220AA62AB856C64B0
:1022800028642968686B42F6653C42F6993E42F63E
:102290001D36C0F6000CC0F6000EC0F60006043174
:1022A000C0E90BCEC0E90D64FEF7CAFB01942868B3
:1022B00001680191416801910199AC63C16841F4E1
:1022C0008071C160416941F001014161416941F0A2
:1022D00040014161204602B070BD000040F65C62E2
:1022E00042F6846CC2F2000241F24801C2F2000CD4
:1022F0001144604508BF02F502610B68012B1CBF49
:1023000001230B6041F24C031344604508BF02F601
:1023100024031B68002B08BF704702F582536045F9
:102320004FF4007008BF02F6180318600020086020
:102330007047000040F65C6242F6846CC2F2000214
:1023400041F24801C2F2000C1144604508BF02F599
:1023500002610B68002B1CBF00230B6041F24C0391
:102360001344604508BF02F624031B68012B08BF15
:10237000704741F23C03134460454FF4007008BFBE
:1023800002F61403186001200860704770B5054616
:10239000C06B20281CBF022070BD79B313466AB3FE
:1023A000A86B012804BF022070BD0120A86300248F
:1023B00021202962AB84EB846C64E8632A68286B73
:1023C00042F6A53C42F6D13E42F61D36C0F6000C60
:1023D000C0F6000EC0F600060432C0E90BCEC0E91C
:1023E0000D64FEF72DFB28686FF040010160AC63BF
:1023F000416941F080014161204670BD012070BDFE
:102400007047000070470000FEE7000010B5002A8A
:1024100008BF10BD02394FF0370C4FF0000E00BF5F
:102420000CEB1074B0F1204F4FEA107338BF03F17A
:10243000300401F8024F0001013A81F801E0EFD1C8
:1024400010BD000010B582B041F21400C4F20200C9
:10245000016840F2080E41F0010101600068C4F219
:10246000020E00F001000190019842F69C10C2F2A9
:1024700000004FF4804240234FF0800C00214FF4C5
:102480008054C0E900E2C0E9023CC0E90411C0E99F
:102490000614FEF721F988BB0C2000210022FEF76C
:1024A0009FFC0C20FEF798FC0D2000210022FEF777
:1024B00097FC0D20FEF790FC0E2000210022FEF775
:1024C0008FFC0E20FEF788FC0F2000210022FEF773
:1024D00087FC0F20FEF780FC102000210022FEF771
:1024E0007FFC1020FEF778FC112000210022FEF76F
:1024F00077FC1120FEF770FC02B010BDFDF798FFCD
:10250000B0B586B00020CDE90400CDE9020041F26B
:102510001800C4F20200016841F2000441F0100109
:1025200001600168C4F2010401F0100101910199F8
:102530000168002241F02001016001684FF400555C
:1025400001F0200101910199016841F0040101604D
:10255000016801F0040101910199016841F008014D
:10256000016000684FF4005100F0080001900198EC
:102570002046FEF7B9FB01200295CDE903000220B9
:10258000059002A92046FEF7A3FA06B0B0BD0000F0
:1025900080B542F6846043F60001C2F20000C4F246
:1025A000010100234FF00C0C4FF4E13280E80E00E3
:1025B000C0E90333C0E905C3C361FFF7AFFC0028DE
:1025C00008BF80BDFDF734FF80B542F6CC6044F211
:1025D0000041C2F20000C4F2000100234FF00C0CD5
:1025E0004FF4E13280E80E00C0E90333C0E905C3CF
:1025F000C361FFF793FC002808BF80BDFDF718FFFB
:1026000080B542F6147044F60001C2F20000C4F234
:10261000000100234FF00C0C4FF4E13280E80E0073
:10262000C0E90333C0E905C3C361FFF777FC0028A5
:1026300008BF80BDFDF7FCFE80B542F2D86040F2D5
:102640000001C2F20000C2F20001002200F046FFC9
:10265000002818BFFDF7ECFE42F2D86040F22001DE
:10266000C2F20000C2F2000101F038F9002818BFE0
:10267000FDF7DEFE42F2D86040F22821C2F20000EF
:10268000C2F2000100F0EEFC002818BFFDF7D0FEFA
:1026900042F2D860C2F2000001F0AAF9002818BF87
:1026A000FDF7C6FE80BD0000FEE70000FEE700006B
:1026B00000F0070080F00703042B28BF04234FF02D
:1026C000FF3C03380CFA03F338BF002099438140E4
:1026D0000CFA00F022EA0000084370472DE9F04FA1
:1026E00081B004460068B0F94410B1F1FF3F02DD4B
:1026F00001B0BDE8F08F4FF0FF3904F52D7140F6C1
:102700000F7B009121E0B0F8501094F86821236805
:1027100001EBC20103EB4101B1F80C34B4F86E21B6
:1027200000996FF39F23C4F8843101F0D7FF20682C
:10273000018801EA0B01803101802046FEF7B6FFD7
:102740002068B0F944104945D2DCB0F8442012F0BA
:102750000F0823D030F828604FEA480A310440F1CE
:10276000E18030F81A1001EA0B01803120F81A10CC
:1027700008EB880104EBC10999F8741109F5B477E5
:1027800000297AD099F86B11022940F08780204601
:1027900039463246FEF7CEFB0546A9E00188D2064F
:1027A0002CD401EA0B0101F500410180B0F8500082
:1027B00094F82810226800EBC10002EB4000B0F84A
:1027C0000404E16B6FF39F2060640844E0632046DB
:1027D0000021FEF73FFB94F824000028B0D0206CC5
:1027E0000028ADD194F82400216840F08000C0B2E8
:1027F000A1F84C00002084F82400A1E70A053FF569
:1028000082AF09049CD5018801EA0B018031018067
:10281000B0F8501094F86821236801EBC20103EB73
:102820004101B1F80C346FF39F23C4F884318BB1AC
:10283000D4F87C1171B1B4F86E2101F04FFFD4F8D7
:102840007C01D4F884110844C4F87C01204600219E
:10285000FEF70CFB2068D4F87831B0F85010002B4C
:1028600000F20C4200F09D803E2B00F2A58003F0A8
:10287000010707EB53039B02A9E0B0F850103A7828
:1028800001EBC20100EB4101B1F80C546FF39F253D
:1028900075B3D9F87C11B9F86E2126E0397848F281
:1028A000C00330F8212002EA0B021A4320F821204D
:1028B00030F82120B0F85030520403EBC10100EB96
:1028C000410109D4B1F80C546FF39F2585B1D9F8B3
:1028D0007C11B9F8722108E0B1F804546FF39F2518
:1028E00035B1D9F87C11B9F870212B4601F0F6FE0C
:1028F000D9F88411D9E95F0229442844C9F8841120
:10290000C9F87C011AB1D9F87801A84204D93978FC
:102910002046FEF7ABFA03E02068394601F0A8FB39
:102920004FF0FF3930067FF50BAF206808EB8801C8
:1029300030F81A2004EBC10302EA0B0203F128016C
:1029400002F50042F70520F81A2008D593F82B204D
:10295000022A04D120463246FEF750FBF0E6B0F8DA
:1029600050700A78266807EBC20706EB4707B7F8EE
:1029700004741E6C6FF39F27F61B4FF0000538BFE1
:102980002E461E6408D9DA6B5E6C3A44DA63F2199B
:102990005A6401F06DFBD3E620461146FEF75AFA61
:1029A000CEE68B5A48F2000723F4F8438B528B5A39
:1029B000CFF6FF773B430AE05F09DE0608BF09EB6D
:1029C000531748F20003CFF6FF7343EA87238B5275
:1029D000018843F60F72114048F2C00202F53F52DF
:1029E00051400180ACE600007047000081B040F229
:1029F0001C00C2F20000006844F6D351C1F262012B
:102A0000A0FB0101480A009000BF0098411E002869
:102A10000091F9D101B0704770470000B0B501389E
:102A20000024B4EB106F1CBF0120B0BD4EF21005A6
:102A3000CEF2000568604FF0FF300F2101F0B2FECA
:102A40000720AC6028602046B0BD000080B5FEF7CE
:102A500057F9FFF793F940F25C20C2F200000168D9
:102A60000131016080BD000070B594B00AAC204611
:102A70002821FDF75EFB002501204FF480310A90EC
:102A8000CDE90B150E9002264FF4E010CDE911614F
:102A9000139020460995CDE90755CDE90555CDE9B7
:102AA0000355CDE90155FEF7D1FF50BB0F20CDE90D
:102AB00005064FF480600795CDE9080505A80221B9
:102AC000FEF7B0FEE8B9102001900020049001A8A4
:102AD000FEF724FEA8B9FEF75FFF44F6D351C1F21A
:102AE0006201A0FB01018809FFF744F90420FFF708
:102AF00033F94FF0FF3000210022FEF771F914B0D6
:102B000070BDFDF795FC00007047000080B5806A3D
:102B10000021C185C184FFF761F980BD10B5846AC9
:102B200020684069E16B212907D110F0800004D0B2
:102B30000020E084204600F069F820684069216C9C
:102B4000222907D110F0400004D00020E085204663
:102B500000F044F8606C40F0100060642046FFF71D
:102B60003DF910BD80B50168806A0968890610D4F6
:102B70000021C1850168CA6822F48072CA604A696E
:102B800022F001024A614A6922F040024A61202192
:102B90000164FFF7A3FB80BD80B5806AFFF7CAFB25
:102BA00080BD000080B50168806A096889060BD481
:102BB0000021C1840068416921F080014161C16840
:102BC00041F04001C16080BDFFF71AFC80BD0000EC
:102BD00080B5806AFFF716FC80BD00000168CA68F6
:102BE00022F49072CA604A6922F001024A612021EF
:102BF0000164704780B50168CA6822F04002CA606B
:102C00002021C163FFF7FCFB80BD00000168CA689A
:102C100022F0C002CA602021C163704780B5016CF8
:102C2000222937D18268B2F5805F01D1016981B173
:102C3000816AB2F5805F07D00AB9026922B10268E1
:102C4000526802F07F0201E0026852680A700121B6
:102C500006E00168826A49686FF35F2111800221F2
:102C6000826A11448162C18D01390A04C18518BF8D
:102C700080BD0168CA6822F02002CA60CA6822F4D6
:102C80008072CA604A6922F001024A61202101640F
:102C9000FFF724FB80BD000010B504460068D4E9AE
:102CA00002C22369016921F4405111430161616944
:102CB00043EA0C021143C26841F20C639A43114388
:102CC000C1604169A26921F44071114343F60002D9
:102CD000C4F201029042416102D0FEF763FE01E0BE
:102CE000FEF772FE6268192148439100B0FBF1F0D3
:102CF00048F21F51C5F2EB11A0FB01235A096FF0F6
:102D0000630302FB0300322303EB0010A0FB01016D
:102D1000F02303EA5113206803EB0212C1F34311BD
:102D20001144816010BD0000C16B212923D181684D
:102D3000B1F5805F01D1016931B1016A02684B1CB4
:102D400003620978516007E0016A036831F8022BD9
:102D50006FF35F225A600162C18C01390A04C18499
:102D600018BF70470068C16821F08001C160C16868
:102D700041F04001C160704710B582B040F2582068
:102D8000C2F200000121016040F25C2042F684643E
:102D9000C2F20000C2F2000401602046FFF736F8DC
:102DA00020680168C9060CD50021019101680191D4
:102DB00040680190019840F65C60C2F2000001F0AA
:102DC00035FE02B010BD000010B582B040F25820B0
:102DD000C2F200000121016040F25C2042F6CC64A6
:102DE000C2F20000C2F2000401602046FFF70EF8B4
:102DF00020680168C9060ED5002101910168019182
:102E000040680190019840F65C60C2F2000000F654
:102E1000280001F00BFE02B010BD000010B582B01A
:102E200040F25820C2F200000121016040F25C2013
:102E300042F61474C2F20000C2F20004016020469F
:102E4000FEF7E4FF20680168C9060FD50021019153
:102E500001680191406841F250010190019840F6EB
:102E60005C60C2F20000084401F0E0FD02B010BD59
:102E7000D0F8B81200290EBF02200020C1F81402B9
:102E80007047000070B5D0F8B86205460C4600F0F7
:102E9000F3FBD5F8B812C6F80C0269B1D5F8BC023C
:102EA000621EC368D6F8040218BF012206F503713A
:102EB00052009847002070BD022070BD10B58121DE
:102EC000044600F02BFB2046012100F027FB2046A2
:102ED000822100F023FB2046832100F01FFB2046C7
:102EE000032100F01BFB2046842100F017FBD4F8DF
:102EF000B80250B1D4F8BC0240688047D4F8B80298
:102F000000F088FE0020C4F8B802002010BD0000C8
:102F100010B5D0F8BC228AB1D0F8B84294F80012AB
:102F2000FF290BD0D2F808C094F80122B0F8AC32D7
:102F300008462146E047FF2084F80002002010BD2B
:102F4000014640F278100A22C2F200000A8070475F
:102F5000014640F258008D22C2F200000A807047FC
:102F6000014640F2E8008D22C2F200000A8070475C
:102F7000014640F284108D22C2F200000A807047A0
:102F8000F0B581B0054600694027002808BF4FF41E
:102F900000772846812102223B46402400F0DEFBD8
:102FA0002846012102223B46012600F0D7FB284695
:102FB000832102223B4600F0D1FB28460321022256
:102FC0003B4600F0CBFB284682210322082300F079
:102FD000C5FB284684210322082300F0BFFB4FF4E1
:102FE000077000F019FEC5F8B802E0B10746D5F841
:102FF000BC02006880470026C7F81462C7F8186250
:103000002869D7F80422002808BF4FF40074284626
:103010000121234600F0AEFBD7F804222846032105
:10302000234600F0A7FB304601B0F0BD80B5D0F8D4
:10303000B822A2B1D0F810E0D2F804224FF0030C6D
:10304000022938BF4FF0010C40236146BEF1000F4A
:1030500008BF4FF4007300F08DFB002080BD0220FC
:1030600080BD000000290EBF0220C0F8BC12002065
:1030700070470000D0F8B8220020C2F80412704750
:10308000D0F8B8320020C3F80812C3F810227047F5
:1030900070B50D460978044611F0600212D0202A5E
:1030A0001BD1EA88DAB1D4F8B862080621D468786E
:1030B000314686F80002204686F8012200F07EF8AC
:1030C000002070BD68780A2807D140F26821C2F25A
:1030D00000012046012200F08BF8002070BDD4F8DA
:1030E000BC02AB888668687829460022B047002079
:1030F00070BDD4F8BC02AB88D0F808C068783146FF
:10310000E047EA882046314600F072F8002070BDA2
:1031100080B5D0F8B8323BB1D3F81422002A4FF072
:10312000010203D0104680BD022080BDC3F81422E6
:10313000D3F80822B3F810324FF0830C022938BFBD
:103140004FF0810C614600F0B5FB0022104680BDB7
:1031500080B5D0F8B42252689047002080BD0000AE
:1031600080B590F89C22013A022A09D849880129A1
:1031700018BF80BD0021C0F8A41200F047F880BD40
:1031800000F012F880BD000080B513460A46002109
:1031900000F0F0FA002080BD80B513460A460021F9
:1031A00000F088FB002080BD10B58021044600F0AF
:1031B00067FB2046002100F063FB10BD80B513467D
:1031C0000A460321C0F894120021C0E9573300F0E9
:1031D000D1FA002080BD000080B50521C0F894120E
:1031E00000210022002300F0C5FA002080BD00006D
:1031F00080B513460A460221C0F894120021C0E9A6
:10320000073300F057FB002080BD000080B504218B
:10321000C0F8941200210022002300F04BFB002094
:1032200080BD000010B540F26C24C2F200040A46D2
:1032300002A0214600F020F9204610BD434443205F
:10324000436F6E666967000040F214201222C2F2DA
:1032500000000A807047000010B540F26C24C2F2F2
:1032600000040A4602A0214600F006F9204610BDDF
:1032700043444320496E74657266616365000000D3
:1032800040F238200422C2F200000A807047000099
:1032900010B540F26C24C2F200040A4602A0214696
:1032A00000F0EAF8204610BD53544D6963726F6513
:1032B0006C656374726F6E696373000010B540F2E1
:1032C0006C24C2F200040A4602A0214600F0D4F8A1
:1032D000204610BD53544D33325F4455414C5F5628
:1032E0004350000080B51A200880FDF7ABF840F28B
:1032F0003C20C2F2000080BD80B5C988012910D1F0
:1033000090F89C124A1E022A04D20022014641F87B
:10331000082F02E0032904D1011D0122FFF768FFF5
:1033200080BDFFF741FF80BDB0B582B0044648883C
:103330000D464FF0FF3101EB102100220629ADF8B8
:10334000062053D8DFE801F00414085252212A0065
:10335000D4F8B002026841E0C0B2052846D8DFE8E0
:1033600000F003292D313539D4F8B002426834E039
:103370002169D4F8B40200290CBF816AC16A0DF139
:10338000060088470146022012E0206970BBD4F88D
:10339000B402416B0DF10600884723E0206928BB89
:1033A000D4F8B402016B0DF10600884701460720EE
:1033B000487018E0D4F8B00282680EE0D4F8B00289
:1033C000C2680AE0D4F8B002026906E0D4F8B0029C
:1033D000426902E0D4F8B00282693AB120690DF185
:1033E000060190470146012030B914E02046FFF75E
:1033F000DBFE0021002070B1BDF8060048B1EA886C
:103400003AB1904238BF02462046ADF80620FFF799
:10341000EFFEE88808B102B0B0BD2046FFF7F6FE27
:1034200002B0B0BD017849B1411E00208A78013058
:10343000002A01F10101F9D1C0B270470020C0B2E9
:103440007047000080B590F89C22013A022A0FD8FC
:10345000C98802290CD1D0F8A4120322002908BF80
:103460000122014641F80C2F0222FFF7C1FE80BD68
:10347000FFF79AFE80BD000070B5F0B11646054614
:103480000C46FFF7CFFF022101EB40003080207097
:10349000032060702878002808BF70BD691E0222D2
:1034A000002300BFD6B246F00105A05563558878C9
:1034B0000232002801F10101F4D170BD03288EBF52
:1034C000022002A151F82000704700BF0000000058
:1034D000020000000100000002000000002804BFFC
:1034E0000220704780B5D0F8B432002B1CBF0023F7
:1034F000C0F8B432002918BFC0F8B012012180F81A
:103500009C12027000F0BEF8002080BD80B5D0F89B
:10351000C002FDF7DFFCFFF7D1FF80BD80B5D0F81A
:10352000C002FDF7B1FCFFF7C9FF80BDB0B504468E
:1035300069B1D4F8B40242693AB194F89C02032804
:1035400003D120469047002050E00220B0BDD4F8BF
:103550009402002818BF042804D12046802100F0DE
:103560008FF93AE0022838D1D4E90810814208D90D
:10357000081A83B22062204611461A46FFF70CFE55
:1035800013E0E169814217D3B1FBF0F202FB1010A6
:1035900090B9D4F8980281420ED220460021002230
:1035A0000025FFF7F9FDC4F89852204600210022BB
:1035B000002300F0DFF810E0D4F8B402C16829B1AC
:1035C00094F89C02032801D1204688472046802198
:1035D00000F056F92046FFF7FFFD94F8A0020128FD
:1035E0004FF0000004BF84F8A002B0BDB0BD0000E1
:1035F000B0B5044669B1D4F8B40282693AB194F81E
:103600009C02032803D12046904700251AE002209F
:10361000B0BDD4F894020025052815D0032811D197
:10362000D4E95810814217D9091AC4F860118142AF
:1036300038BF084683B2204611461A46FFF7A4FD5C
:103640000020B0BD2846B0BD20460021C4F89452E9
:1036500000F016F92846B0BDD4F8B402016929B1CA
:1036600094F89C02032801D1204688472046FFF7A2
:10367000CDFD0020B0BD000080B5D0F8C002FDF740
:10368000E7FD80BD10B5044642F6943045F6004192
:10369000C2F20000C4F20001C0F8EC42C4F8C0025B
:1036A0000822022380E80E000021C0E90611016211
:1036B000FDF72CFF002818BFFCF7BAFED4F8C002B3
:1036C000002100222823FDF79FFBD4F8C0028021AF
:1036D00000226023FDF798FBD4F8C002812100226C
:1036E000C023FDF791FBD4F8C002012100224FF462
:1036F0008873FDF789FBD4F8C002822100224FF4C1
:103700008073FDF781FBD4F8C002832100224FF4BF
:10371000C073FDF779FBD4F8C002032100224FF4F7
:10372000E073FDF771FBD4F8C002842100224FF44E
:10373000E873FDF769FB002010BD0000D0F8C0025F
:1037400001F07F0202EB820200EBC20000F12A02CC
:10375000090658BF00F5B5721078704780B59446D9
:10376000D0F8C0021A466346FDF77CFDFFF7A6FEBF
:1037700080BD000080B5D0F8C002FDF7A3FDFFF7C3
:103780009DFE80BDF0B581B000210022402304469B
:1037900000254026FFF7E2FF012720468021002276
:1037A0004023C4F85871C4F86461FFF7D7FFD4F818
:1037B000B802A761666284F89C72C4F8945265608E
:1037C000C4F8A45228B1D4F8B402002142682046BB
:1037D0009047002001B0F0BD90F89C12042904BF6E
:1037E00090F89D1280F89C120020704780B590F8E8
:1037F0009C12032905D1D0F8B412C969002918BF59
:103800008847002080BD00000246002011617047FB
:1038100080B5D0F8C002FDF735FFFFF74FFE80BD41
:10382000B0B500F52A750446284600F04BF894F828
:10383000A8020121B4F8AE22C4F8941200F01F01CE
:103840000229C4F8982208D001290CD089B9204651
:10385000294600F0D3F80020B0BD2046294600F0EC
:1038600007F90020B0BD2046294600F0A5F9002048
:10387000B0BD00F08001204600F002F80020B0BD8D
:1038800080B5D0F8C002FDF737FDFFF717FE80BD09
:1038900080B5D0F8C002FDF713FFFFF70FFE80BD23
:1038A000014690F89C02042281F89D02002081F8D4
:1038B0009C22704780B5D0F8C002FDF753FDFFF79A
:1038C000FDFD80BD0A7802704A7842704A884280C5
:1038D0008A888280C988C1807047000000290EBF95
:1038E0000220C0F8B412002070470000B0B58A88EA
:1038F000044642B9C88830B948887F2803D894F86C
:103900009C12032903D12046FFF74EFCB0BD00F006
:103910007F052046294684F89E52FFF779FF20460E
:10392000FFF774FC002D14BF0220012084F89C02D4
:10393000B0BD000080B5D0F8B42232B11268904713
:10394000002818BF0120400080BD022080BD00007B
:10395000B0B54A8840F26925D1B20446C2F20005EA
:1039600002292A7003D32046FFF71EFCB0BD94F84D
:103970009C0203280CD002281AD141B3032084F8FA
:103980009C0220466160FFF7D5FF0228EBD01EE0C5
:10399000B1B1606888421AD0C1B22046FFF7D8FBA7
:1039A000297820466160FFF7C5FF02280FD1DAE7CA
:1039B0002046FFF7F9FB29782046FFF7C9FBB0BD89
:1039C000022084F89C0220466160FFF7C1FB20467C
:1039D000FFF71CFCB0BD000080B54988012918BF65
:1039E00080BD0121C0F8A412FFF710FC80BD0000CB
:1039F00080B5FFF74DFF002080BD000080B50A783C
:103A000012F0600209D0402A01D0202A13D1D0F848
:103A1000B42292689047002080BD4A78092A0AD8CB
:103A2000DFE802F0050D091109152109191DFFF73D
:103A300009FD002080BDFFF7B7FB002080BDFFF728
:103A40008FFB002080BDFFF7C7FF002080BDFFF780
:103A50004DFF002080BDFFF74FFC002080BDFFF729
:103A600077FF002080BDFFF75FFC002080BD0000D5
:103A7000B0B50A460978044611F060010BD0402920
:103A800001D0202919D1D4F8B40211468368204608
:103A900098470020B0BD5078117998B101282CD0FA
:103AA000032868D194F89C02032839D0022862D1F7
:103AB00041F0800080285ED029E02046FFF774FBAB
:103AC0000020B0BD94F89C02032835D0022852D1C2
:103AD00041F0800080284ED101F07F0000EB800093
:103AE00004EB800000F11402090658BF00F5AA7229
:103AF000002010602046114658E094F89C020328EC
:103B00003ED0022837D141F08000802833D02046B3
:103B1000FFF7B6FE20468021FFF7B2FE0020B0BDC1
:103B20005088A8BB41F08000802831D0D08878BB75
:103B30002046FFF7A5FE2BE001F00F0202EB820208
:103B400011F0800004EB82020CBFD2F85821926978
:103B50008AB101F07F0202EB820204EB820202F1E1
:103B60001405002841F0800008BF02F5AA758028DE
:103B700013D1002017E02046FFF716FB0020B0BD50
:103B8000508800289CD1480602D02046FFF7BEFC92
:103B90002046FFF73BFB0020B0BD2046FFF7CEFDDF
:103BA0000028E6D001202860204629460222FFF79F
:103BB0001FFB0020B0BD0000B0B50D4609780446DB
:103BC00011F0600118BF40290DD194F89C02013812
:103BD000022803D8A88810F0FC0F0BD02046FFF76E
:103BE000E3FA0020B0BD2029EFD02046FFF7DCFA31
:103BF0000020B0BDD4F8B402294682682046904720
:103C00000028F5D1E8880028F2D12046FFF7FEFA17
:103C10000020B0BD7047000040F26C40C2F20000CE
:103C2000704700002DE9F0410C78024691F803E05E
:103C300000EB840830F8240047F27065BEF1030FF2
:103C400020EA050507D80020DFE80EF002070D0A7C
:103C500045F4007506E0012005E045F4806501E0CB
:103C600045F4C065002048F2800C45EA0C03A8F832
:103C70000030B8F8003040F60F752B40234343EA7C
:103C80000C03A8F800300B7B002B51D0B8F80030A3
:103C900040F60F652B400CF580752B43A8F80030DB
:103CA000B2F850300E8902F58067250107EB041445
:103CB00026F00106E652B2F850204C8905F10803BF
:103CC0003B4424F001049C524978B8F800200029B4
:103CD00002F4804154D049B1B8F8001040F60F7298
:103CE00011400CF580421143A8F80010B8F80010FC
:103CF000490609D5B8F8001040F60F7211400CF1D2
:103D000040021143A8F80010B8F8001040F63F72C6
:103D100011400CF120024A40BEF1010F08BF41EAF8
:103D20000C02A8F80020B8F8001043F60F724EE01D
:103D30004B78B2F85050002B4FEA04144ED0C9888B
:103D400022442A4421F00101A2F80014B8F800101E
:103D5000490609D5B8F8001040F60F7211400CF171
:103D600040021143A8F80010B8F8001040F63F7266
:103D7000BEF1010F01EA02012AD00CF1200275E028
:103D800049B1B8F8001040F60F7211400CF58042AE
:103D90001143A8F80010B8F80010490609D5B8F882
:103DA000001040F60F7211400CF140021143A8F8C8
:103DB0000010B8F8001043F60F7211400CF5405295
:103DC0005140A8F80010B8F8001040F63F721140BA
:103DD00041EA0C01A8F80010BDE8F081CF8844F05A
:103DE000080E02F580639E4427F001072EF8057047
:103DF000B2F850200D6944F00C0119443DB13E2D3C
:103E000011D805F0010303EB55039D0218E0535A46
:103E100048F2000723F4F8435352535ACFF6FF7782
:103E200043EA07050CE06B094FF0FF37EC0608BFCB
:103E300007EB551348F20007CFF6FF7747EA8325D3
:103E40005552B8F80010490409D5B8F8001040F6EA
:103E50000F7211400CF580421143A8F80010B8F819
:103E6000001043F60F7211400CF540525140A8F873
:103E70000010BDE8F08100000020704780B50B788D
:103E80004A78097B30F823E048F2C00C00EB83034A
:103E900041B30EF4804062B338B1188840F60F7118
:103EA00008400CF57F51084318801888400606D555
:103EB000188840F60F71084040EA0C0018801888F6
:103EC00040F60F7108400CF57F51084318801888A0
:103ED00040F63F710840ACF140010843188043F6BA
:103EE0000F7045E052B35FEA4E602DD440F63F704C
:103EF0003EE038B1188840F60F7108400CF57F514C
:103F0000084318801888400606D5188840F60F71B7
:103F1000084040EA0C001880188840F60F710840ED
:103F200040EA0C001880188843F60F710840ACF185
:103F300040010843188040F63F7019E05FEA4E40A8
:103F40000CD443F60F7013E0188840F60F71084048
:103F500040EA0C00188040F63F7009E0188840F6EF
:103F60000F7108400CF57F510843188043F60F701D
:103F700019880840ACF1400101430020198080BD40
:103F8000002070470020704701460120A1F8400042
:103F900000220020A1F84020A1F84420A1F85020E0
:103FA000704700000146B0F8400044F2FF020240B2
:103FB0000020A1F8402070470020704780B50A7BA0
:103FC0000AB1002080BD0A784B7830F822C04FEA51
:103FD0004202C3B15FEA4C6348F2A00C0BD530F843
:103FE00012E040F60F730EEA030E0CF1200343EAD1
:103FF0000E0320F81230C9780129E2D030F81210EF
:1040000040F63F7312E05FEA4C414BF2800C09D559
:1040100030F8123040F60F7119400CF580531943F7
:1040200020F8121030F8121043F60F73194081EA8D
:104030000C0120F81210002080BD000002460B7811
:10404000487832F823C040F63F71002848F29000CB
:1040500008BF43F60F71CFF6FF7008BF00F57F6011
:1040600001EA0C014140002022F8231070470000B3
:104070002DE9F0410D4649788046012943D1AE69CA
:104080002A69287B964288BF164600285BD0E878CC
:10409000022840F0888028782B6A38F8204040F6C3
:1040A0000F6C934204EA0C024BF280044FEA400783
:1040B000CFF6FF7440F2C280A4F53C54224328F8A6
:1040C00017209A1B2A6238F817204BF280075206F5
:1040D00000F1F280012900F02E81002940F03B829E
:1040E00000010430B8F850104044002E00F5806004
:1040F00000F015823E2E00F2228206F0010202EB51
:104100005602920226E2287B78B3E878012868D02C
:10411000022840F08780002940F03581B8F850200F
:1041200028782B69000142440430002B02F580629C
:1041300000F0F6803E2B00F2188103F0010707EB38
:1041400053039B021EE16969EA88B3B2404600F05E
:10415000E9FAB8F8500029784044090104310844CC
:10416000A0F8006442F6D070C5E1AA692869111A66
:1041700038BF002188BF0246A961B8F850302978BD
:104180004BF28000090143440C31002A03F580639F
:104190004BD03E2A00F2838002F0010707EB520267
:1041A0009202CA525DE12A7838F8220040065ED4B5
:1041B000012900F0A380002940F07281110104312F
:1041C000B8F850004144002E01F5806100F04C81A8
:1041D0003E2E00F2598106F0010202EB56029202D5
:1041E0005DE12869AA69131A38BF002388BF024617
:1041F0000129AB6178D0002940F0FA80B8F850303E
:104200002878434400010430002A03F5806300F05D
:104210009B803E2A00F2E08002F0010707EB520784
:10422000BF02E4E00120BDE8F081CA5A22F4F8425E
:10423000CA52CA5A42F40042CA5212E1A4F540518D
:10424000114328F817100001B8F85010043040440A
:104250000844A0F800342A8969699BB2404600F0FE
:1042600061FA42F6D070201A40F63F7116E2012939
:104270004DD0002940F0238111010C31B8F85000D5
:104280004144002E01F5806100F0F6803E2E00F2E0
:104290000A8106F0010202EB560292020EE1570972
:1042A0004FF0FF36D40608BF06EB52174FF400421A
:1042B00042EA8722CA52D4E001294DD0002940F0B9
:1042C000908100010C30B8F850104044002E00F5E9
:1042D000806000F02C813E2E00F2778106F0010212
:1042E00002EB560292027BE1B8F850002B78404472
:1042F0001B0104331844A0F8002479E01101B8F838
:104300005000043141440844A0F80064C8E01101A1
:10431000B8F850000C3141440844A0F80064CEE0E5
:10432000835A48F2000723F4F8438352835ACFF6A6
:10433000FF773B4326E00001B8F8501004304044BA
:104340000844A0F8006406E1C75A27F4F847C752AA
:10435000C75A47F400474AE00001B8F850100C3043
:1043600040440844A0F800643BE15F094FF0FF3689
:10437000DC0608BF06EB531748F20003CFF6FF73C5
:1043800043EA87238352012913D000294FD1B8F87B
:10439000501028782A69000141440C3001F58061F1
:1043A00092B13E2A37D802F0010303EB5202920287
:1043B0003CE0B8F850002978404409010C312A69E2
:1043C0000844A0F8002432E0425A22F4F842425253
:1043D000425A42F4004229E057094FF0FF36D40612
:1043E00008BF06EB52174FF4004646EA8727C7522C
:1043F00001294BF2800004D099BBB8F850302978DD
:10440000C0E6B8F850102B7841441B010C33194416
:10441000A1F8002425E053094FF0FF37D60608BF66
:1044200007EB52134FF4004242EA83224252E869FA
:1044300000284BF2800014D0297844F2400338F869
:1044400021201A409A4218BF002A0AD1490038F8A0
:10445000112040F60F731A40A0F53F531A4328F875
:10446000112043F60F7119E1425A22F4F8424252E8
:10447000425A42F4004212E0425A22F4F8424252B6
:10448000425A42F4004219E072094FF0FF33F70636
:1044900008BF03EB56124FF4004343EA8222425214
:1044A00005F108000DE072094FF0FF33F70608BF71
:1044B00003EB56124FF4004343EA8222425205F1C5
:1044C0000A0002886969B3B240464BF2800700F0E7
:1044D00029F9697842F6D070012914D059B92878A1
:1044E00040F60F7238F820101140A7F53F521143E3
:1044F00028F82010CDE04BF28001CFF6FF71081AAA
:1045000040F63F71CAE0297840F60F7338F8212051
:104510001A4007F580531A4328F82120BBE00A5AB5
:1045200022F4F8420A520A5A42F4004212E00A5AAD
:1045300022F4F8420A520A5A42F4004250E0720948
:104540004FF0FF33F40608BF03EB56124FF400435D
:1045500043EA82220A522A896969B3B2404600F0CE
:10456000E1F868692A698119286A00236961904223
:1045700088BF831B6A7888BF3046012A2B6211D01E
:10458000CAB9B8F850302A78434412010C3203F506
:10459000806390B13E285DD800F0010606EB50061E
:1045A000B60262E0B8F850202B7842441B010C336D
:1045B0001A44A2F800046A8967E0D65A26F4F8463D
:1045C000D652D65A46F400464FE072094FF0FF33F8
:1045D000F40608BF03EB56124FF4004343EA82226D
:1045E0000A526A896969B3B2404600F09BF868696B
:1045F0002A698119286A00236961904288BF831B58
:104600006A7888BF3046012A2B6211D0E2BBB8F825
:1046100050302A7843441201043203F5806388B194
:104620003E2825D800F0010606EB5006B6022AE027
:10463000B8F850202B7842441B0104331A44A2F8E6
:10464000000421E0D65A26F4F846D652D65A46F44B
:10465000004618E04609C4064FF0FF3C08BF0CEBCB
:1046600050164FF4004444EA8626D6526A890CE07C
:104670004609C4064FF0FF3C08BF0CEB50164FF440
:10468000004444EA8626D6522A8983B2404600F086
:1046900049F842F6D070381A40F63F712A7838F857
:1046A00022301940484028F822000020BDE8F0815F
:1046B00001460020A1F844004FF43F420020A1F839
:1046C0004020704780B542F69430C2F20000FCF7FB
:1046D00065FE80BDB0F844007047000000EB42006A
:1046E0000022B2EB530F00F580620BD0580802395C
:1046F000043A00BF32F804CF013821F802CFF9D1D3
:1047000002310432D8071CBF1088087070470000BF
:1047100000207047002904BF8021A0F84C10002021
:104720007047000003F1010C0023B3EB5C0F08BFDE
:10473000704700EB42024FEA5C03881E02F57F716E
:1047400030F8022F013B21F8042FF9D17047000007
:10475000FEE70000002848BF704700F01F0101225B
:1047600002FA01F14EF280224009CEF2000242F834
:1047700020107047002848BF704700F01F01012239
:1047800002FA01F14EF200124009CEF2000242F8A4
:10479000201070474EF60C50CEF200000068C0F3B7
:1047A000022070474EF6145300F00F02CEF20003C1
:1047B00009011A4400F16043B0F1FF3FC8BF03F59F
:1047C00064421170704700004EF60C51CEF20001A9
:1047D0000A684FF6FF031A4060F30A2242F0806035
:1047E00040F0FD700860704784B040F65C68C2F22B
:1047F0000008404641F67C01FBF79BFC42F68464CE
:1048000042F6E41183A0C2F20004C2F2000142F6B3
:104810002C222523C2F20002C8E90004C8E90231B3
:1048200042F67421C8F810207CA0C2F2000142F6C2
:10483000BC22C2F20002C8F82808C8F8341879A0CF
:1048400041F2500142F6CC662623C8F8382848F8D1
:10485000010008EB010042F6147742F6043142F6FB
:104860004C32C2F20006C8F83038C2F20007C2F279
:104870000001C2F200022723C8F82C68C0E90173C6
:10488000C0E9031242F69C10C2F2000041F6780122
:1048900048F80100FCF742FAFEF7E6F8FDF730FEB3
:1048A000FDF7D0FDFDF774FEFDF78EFEFDF7A8FEC7
:1048B000FDF7C2FE2068C16821F40051C160306874
:1048C000C16821F40051C1603868C16821F4005109
:1048D000C16041F24C0008EB000541F24800404441
:1048E000039041F244004044029041F23C004044B5
:1048F000019000BF4FF0000B10E041F20000C4F245
:1049000001004FF400510122FCF7EEF940F258206B
:104910004FF0000BC2F20000C0F800B0AA46BBF195
:10492000000F08BF08F6240A0398DAF8009008BFC1
:1049300008F50260006881451FD008F63C00BBF115
:10494000000F08BF08F11400019F00EB4926444600
:1049500008BF08F614074FEA4B0800BF37F82910C4
:104960001FFA88F23046FBF7C7FC0128F6D0B9FAE7
:1049700089F04009A046CAF800000298BBF1000F78
:1049800008BF08F61C000768012F14DB002108F699
:104990003C464FEA4B040160CAF80010BBF1000F1F
:1049A00008BF08F2144600BFB9B2A2B23046FBF706
:1049B000A3FC0128F8D0BBF1000F0BF1010BADD027
:1049C00040F25820C2F20000016840F25C20C2F2BE
:1049D0000000006869B132288FD841F20000C4F2AB
:1049E00001004FF4005100224FF0000BFCF77CF95E
:1049F00094E7B0F5FA6F4FF0000B8FD340F25820D8
:104A0000C2F200000121016040F25C20C2F200000D
:104A100001606FE755415254310000005541525436
:104A2000320000005541525433000000F0B581B00F
:104A30000446C068D4F820180268606852684FF4D1
:104A40000073002908BF4FF480639D1AFDF79AF99F
:104A5000012D25DB0AD1D4F8200804EB4020406961
:104A6000C4F814040120C4F81C0819E040F65C6680
:104A7000D4F82018C2F2000641F67807F05904EB8A
:104A80004121143104F214422B46FBF7B5FFF059D3
:104A900000210222FBF75EFE002808BFC4F81C5864
:104AA0000022606804F11401C4F820284FF48062E9
:104AB000FDF7CAFB01B0F0BD02E008C8121F08C133
:104AC000002AFAD170477047002001E001C1121F8F
:104AD000002AFBD170470000000000000000010226
:104AE0000304060708090000000001020304000097
:104AF000104B000800000020680200006C01000854
:104B0000004C000868020020F8300000C84A000885
:104B10001349321B0881041A91041ABD041AE504D2
:104B20001A25041A5904111324F41B812F181A2E64
:104B3000201A3010311A11101A71101A8504C11A76
:104B400061182A511C19041A41041409028D130416
:104B50000115C032080B2008020202010209041AE2
:104B6000010911130524161001052401100901047F
:104B7000240202052406170107058203081B1009F9
:104B80003133020A2E0705010240072A81071B085C
:104B90000B413942DA02425A03424E0203070584AE
:104BA000426A03424A03422A830731093F90113A7D
:104BB000029019070943901B0A064A212B40019CC9
:104BC00013078D0E2E020104C0329439525A8152BD
:104BD000014A1A12631809EF0201408304405799F1
:104BE0001B0203A51A89F81A850413C9011B08B50D
:104BF00008071A040309041A0329D86904321000AB
:04000005080000ED02
:00000001FF
