:020000040800F2
:10000000D83D002001010008A11800089918000837
:100010009D180008E9010008ED43000800000000F9
:100020000000000000000000000000003D2000086B
:100030009905000800000000A518000841200008EC
:100040001B0100081B0100081B0100081B01000820
:100050001B0100081B0100081B0100081B01000810
:100060001B0100081B0100081B0100081B01000800
:100070001B0100081B010008690500087505000840
:10008000810500088D0500081B0100081B01000800
:10009000B53000081B0100081B0100081B01000807
:1000A0001B0100081B0100081B0100081B010008C0
:1000B0001B0100081B0100081B0100081B010008B0
:1000C0001B0100081B0100081B0100081B010008A0
:1000D0001B010008652200088D2300081B01000891
:1000E0001B0100081B0100081B010008DFF80CD0F1
:1000F00000F018F80048004729460008D83D0020C5
:100100000648804706480047FEE7FEE7FEE7FEE7B1
:10011000FEE7FEE7FEE7FEE7FEE7FEE761200008F8
:10012000ED000008064C074D06E0E06840F00103D2
:1001300094E8070098471034AC42F6D3FFF7DAFF93
:10014000E05500080056000840EA01039B0703D071
:1001500009E008C9121F08C0042AFAD203E011F806
:10016000013B00F8013B521EF9D27047D2B201E0C8
:1001700000F8012B491EFBD270470022F6E710B5AC
:1001800013460A4604461946FFF7F0FF204610BD05
:1001900070B58C1810F8015B15F0070301D110F849
:1001A000013B2A1106D110F8012B03E010F8016B76
:1001B00001F8016B5B1EF9D12B0705D40023521EF9
:1001C0000DD401F8013BFAE710F8013BCB1A921C61
:1001D00003E013F8015B01F8015B521EF9D5A1425F
:1001E000D8D3002070BD0000FEE70000B0B584B099
:1001F000202864D140F61C550C4641F22800022B01
:10020000C2F2000528BF05440968002957D0A27929
:10021000002A54D068684160B2F108014FF0000232
:1002200018BF0121090381602179002918BF01212C
:100230004903C1606179C0E906220C2242614FF492
:100240008062012908BF4FF4C062002908BF0A4636
:1002500002610168CA6822F40052CA6001F05CF8C9
:1002600080BB686801230168CA6842F01002CA6056
:10027000CA6842F40052CA6095F9081001F01F02E2
:10028000490903FA02F24EF28023CEF2000343F84A
:10029000212000F017FE686805F114014FF4006298
:1002A00001F072FA207961792A682368A5798DE8CE
:1002B000230045F28251C0F6000101F0DFFB00206F
:1002C00004B0B0BD02A04FF48C7104F091F800BFEF
:1002D0002E2E2F5372632F757362645F6364635FA6
:1002E00069662E63000000000020704742F67050DF
:1002F000002140F26462C2F20000C2F20002D0F8B3
:100300001802C0F8101240F66401C2F20001C0E900
:1003100081210020704700002DE9F0410D4642F692
:10032000705180461646C2F20001D1F8180200282A
:10033000C0F804821DD00320022E38BF0120D1F85E
:1003400020220F7C02EB4013002FC3F83C8203F500
:10035000107414BF40274FF4007703F50A7127602B
:10036000002783F82972C3F844720870106802F0FD
:10037000ADFC40F61C5141F22C00022EC2F20001ED
:10038000084438BF081D2A88006890F839102029D1
:1003900061D1B8F1000F5ED0002A5CD090F838101F
:1003A000012958D0002101252123C28442F261276E
:1003B00042F23D24C1638284C0F8208080F8385026
:1003C00080F8393042F2ED03C0F60007C0F60004B1
:1003D000066BC0F60003C6E90A47C6E90C3196F879
:1003E00020700368012F2DD086F8205096F82170D8
:1003F000012F24D100251F1DB563022586F8215049
:1004000035682C6824F001042C600124D6E90FCE55
:1004100004FA0EF4CCF804406A607268102A42466E
:1004200008BF3A46AA6008BF4746EF602A6842F014
:100430000E022A602A6842F001022A6002E00022CD
:1004400086F820206FF040021A6080F83810586952
:1004500040F0800058610020BDE8F0812DE9F04FA8
:1004600081B042F6705882464FF001090126C2F26F
:100470000008D8F81802D0F8140268BB0D4603270C
:1004800000244FF0400B08460026022A38BF0127FF
:10049000402825DBD8F818120AEB0400C1F810B286
:1004A000C1F80802B9B1D1F81422002AFAD1C1F872
:1004B0001492D8F8202202EB471101F8287FC1E9F5
:1004C000050BCE6181F80190106802F0FFFB40340B
:1004D000281BDDD200E00226304601B0BDE8F08FD7
:1004E000F8B1D8F8181280B20AEB0402C1F8100271
:1004F000C1F8082299B3D1F81432002BFAD10123A4
:100500000026C1F81432D8F8205205EB471101F843
:10051000287FC1E90520CE614B70286802F0D6FB28
:10052000DAE7D8F818020021C0F81012C0F808A2C3
:10053000B8B1D0F814120029FAD101220026C0F86F
:100540001422D8F8200200EB471101F8287FC1E9F6
:1005500005A6CE614A70006802F0B8FBBCE702262F
:10056000BAE70226B8E7000043F21C00C2F200001E
:1005700000F014B842F6D870C2F2000000F00EB8D5
:1005800043F26000C2F2000000F008B843F2A40099
:10059000C2F2000000F002B87047000010B5D0E9C8
:1005A0000FCEDCF8002001680B685C0725D5042419
:1005B00004FA0EF4144020D00A682F23C4F2020378
:1005C00092065EBF0A6822F004020A600422994281
:1005D000C4F2020257DD3023C4F2020399426AD00A
:1005E0004423C4F20203994268D05823C4F20203A0
:1005F000994268D14FF480236DE09C0728D50224EE
:1006000004FA0EF4144023D00A68920606D40A684D
:1006100022F00A020A60012280F821202F230422FE
:10062000C4F20203C4F20202994238DD3023C4F25C
:100630000203994255D04423C4F20203994253D095
:100640005823C4F20203994253D14FF4003358E0C7
:100650001B075FD5082303FA0EF31A4008BF10BD2D
:100660000A6822F00E020A60012101FA0EF2CCF8AB
:10067000042081634FF480710184016B002949D00B
:10068000BDE8104008470823C4F20203994218D07D
:100690001C23C4F20203994215D140231BE0082316
:1006A000C4F20203994222D01C23C4F202039942ED
:1006B0001FD1202325E04FF480630CE04FF48043EA
:1006C00009E0042307E002F168044FF08063A142CF
:1006D00008BF4FF480031360C16AD9B1BDE8104070
:1006E00008474FF400730CE04FF4005309E0022375
:1006F00007E002F168044FF00073A14208BF4FF415
:1007000000130021136080F82010816A11B1BDE848
:100710001040084710BD00002DE9F04F90F821303F
:10072000022B1FD103681F68BF0620D440F26C0C57
:100730000029C4F2020CACF1640E1FD0734531D015
:100740004324C4F20204A3422EDC1C24C4F202049B
:10075000A34245D03024C4F20204A34245D14FF451
:10076000806454E0002180F82010042101E04FF45F
:100770008071816301210846BDE8F08F734520D068
:100780004324C4F20204A3421DDC1C24C4F202046C
:10079000A34231D03024C4F20204A34231D14FF439
:1007A000007434E0042432E04424C4F20204A3427E
:1007B00018D05824C4F20204A34216D14FF4802466
:1007C00025E0022423E04424C4F20204A34215D00D
:1007D0005824C4F20204A34213D14FF4003416E0AB
:1007E000402414E04FF4804411E04FF080646345EE
:1007F00008BF4FF480040AE0202408E04FF40054BE
:1008000005E04FF00074634508BF4FF4001443F255
:10081000D055C2F200052E685CF86C7C274216D0D9
:10082000D1B3734550D04321C4F202018B424DDC59
:100830001C21C4F202018B4200F002813021C4F27B
:1008400002018B4240F001814FF4806103E1571CAB
:100850004BD0002A40F095802F225CF86C1CC4F22B
:100860000202934240F3FA803022C4F20202934221
:1008700000F018814422C4F20202934200F0178172
:100880005822C4F20202934240F01A814FF400222F
:100890000A4240F01D812BE1734500F0C2804321E4
:1008A000C4F202018B4200F3BE801C21C4F202019B
:1008B0008B4200F0E1803021C4F202018B4240F013
:1008C000E0804FF40071E2E00421C4E04421C4F26E
:1008D00002018B4200F0B6805821C4F202018B4223
:1008E00040F0B3804FF48021B5E02F2540F2080995
:1008F000302740F2440B40F2580A4FF0006863453D
:10090000C4F20205C4F20209C4F20207C4F2020BE7
:10091000C4F2020A08BF4FF4000800BF5CF86C6C18
:10092000AB420BDDBB4214D05B4517D053451ED103
:100930004FF4002232421FD0CAE000BF4B4512D014
:100940001C22C4F20202934211D18022324213D0FF
:10095000BEE04FF4006232420ED0B9E04FF40042E4
:10096000324209D0B4E00822324205D0B0E042461B
:10097000324240F0AD8000BF5CF86C2C2242CDD0FA
:100980004EE740F22F0840F2300B4FF0006A63450B
:10099000C4F20208C4F2020B08BF4FF4000A00BF01
:1009A0005CF86C9C434512DD5B4520D04427C4F2C3
:1009B0000207BB4221D05827C4F20207BB42574668
:1009C00008BF4FF4002717EA090F21D080E008275D
:1009D000C4F20207BB4216D01C27C4F20207BB4276
:1009E000574608BF802717EA090F11D070E04FF46F
:1009F000006717EA090F0BD06AE04FF4004717EAC7
:100A0000090F05D064E0082717EA090F60D100BF7D
:100A10002F68BF1B97426BD85CF86C7C2742BFD015
:100A2000FEE6022133E04421C4F202018B4225D0CC
:100A30005821C4F202018B4223D14FF4003126E049
:100A4000402108E04FF4804105E04FF080616345AC
:100A500008BF4FF480014CF8681C1DE00822C4F266
:100A60000202934228D01C22C4F20202934227D1F0
:100A700080220A422CD13BE0202108E04FF40051B3
:100A800005E04FF00071634508BF4FF400114CF8CA
:100A9000681C012180F82110002180F820100846F0
:100AA000BDE8F08F4FF400620A4211D120E04FF40C
:100AB00000420A420CD11BE008220A4208D117E08A
:100AC0004FF00062634508BF4FF400020A420FD0A6
:100AD000D0E90F23012101FA03F353604FF4807230
:100AE0000284826B42F0010282630846BDE8F08F07
:100AF0004FF480710184816B41F0200139E60000E0
:100B00002DE9F04F82B041F20042042340F2004C44
:100B10004FF6FF7B4FF0010E0F274FF0000A4FF00A
:100B20000009C4F20102C4F2010CC1F2100B9042A0
:100B300008BF03230093002309E000BF0AF1010A64
:100B40000433BAF1100F04BF02B0BDE8F08F0A6899
:100B50000EFA0AF812EA080FF0D04C685C4511DC76
:100B6000122C51D8DFE804F0340A4246505050505D
:100B7000505050505050505050494D00D1F80C90AA
:100B800042E000BF4FF6FF72C1F2210294420FDC37
:100B90000022C1F2110294421AD00022C1F21202C4
:100BA000944215D00022C1F22102944210D02BE0D1
:100BB0000022C1F2220294420AD00022C1F2310284
:100BC000944205D00022C1F2320294421CD100BFEF
:100BD0008A6842B1012A14BFC0F81480C0F810809E
:100BE0004FF0080910E04FF004090DE0CA6802F167
:100BF000080909E04FF0000906E0CA6802F104099B
:100C000002E0CA6802F10C091A460546BAF1080F5B
:100C100028BF203A28BF04352E6807FA02F409FAE3
:100C200002F226EA040422432A60CA79D2067FF53A
:100C300085AF41F2180203F00C06C4F2020214461A
:100C4000126842F001022260226802F00102019261
:100C500007FA06F2ACF57E77019C4FEA9A0457F842
:100C60002450954340F60002C4F2010290420ED097
:100C700040F60042C4F2010290420AD041F2000262
:100C8000C4F201029042009A08BF022202E0002250
:100C900000E00122B2402A4347F824204FF6FF77B4
:100CA000D1F804B0C1F210075FEACB32DCF80020C3
:100CB00054BF22EA080242EA0802CCF800205FEAA8
:100CC0008B32DCF8042054BF22EA080242EA080210
:100CD000CCF804205FEACB22DCF8082054BF22EADB
:100CE000080242EA0802CCF808205FEA8B22BB46E1
:100CF0004FF00F0740F20C42C4F201021446126892
:100D000054BF22EA080242EA0802226016E7000005
:100D1000B0B5014643F2E800C2F200000029D0F865
:100D20005C440DD0D4F814024269002A08BFB0BD5B
:100D300094F8FC0103286AD12046BDE8B040104772
:100D4000D4F8F421022A5AD1D4E90732934214D9B3
:100D500000EB4110991A0025C06BE16189B2D4F80B
:100D6000202202F13C0323C34FF48070114621F886
:100D7000280F106801F0AAFF1BE0A069904223D35E
:100D8000B0FBF2F101FB1201F1B9D4F8F81188427D
:100D90001AD2D4F8200200254FF480720146C0E92F
:100DA0000F55456421F8282F006801F08FFFC4F823
:100DB000F851D4F82012C1F83C52C1F84052C1F8A1
:100DC0004452A1F8285215E0D4F81402C16829B1A0
:100DD00094F8FC01032801D1204688470520C4F877
:100DE000F4010020D4F82012C1E98F00C1F84402B8
:100DF000A1F82802086801F50A7101F067FF94F86C
:100E00000002012802BF002084F80002B0BDB0BD7E
:100E100010B5014643F2E800C2F200000029D0F804
:100E20005C440DD0D4F814028269002A08BF10BDBA
:100E300094F8FC01032826D12046BDE81040104755
:100E4000D4F8F421032A1ED1D4E9433293421BD9AA
:100E500000EB4110991AD0F83C02C4F80C119142F1
:100E6000D4F820324FF00004A3F8284238BF0A46D5
:100E700091B203F50F7213C203F50A711868BDE849
:100E8000104001F023BF10BDD4F81402016929B14C
:100E900094F8FC01032801D1204688470420002152
:100EA0004FF48072C4F8F401D4F82002C0E90F11A5
:100EB0004164014621F8282F0068BDE8104001F088
:100EC00005BF000080B501684A6990F83930212BD0
:100ED00027D112F0800224D04A6922F080024A61B0
:100EE000026BBAB1D2F800C0DCF8003023F00E0378
:100EF000CCF80030DCF8003023F00103CCF80030EF
:100F00000123D2E90FCE03FA0EF3CCF804304FF4EC
:100F100080731384CA6822F0C002CA60202280F85D
:100F200039204A6990F83A30222B2BD112F0400236
:100F300028D04A6922F040024A61426BBAB1D2F825
:100F400000C0DCF8003023F00E03CCF80030DCF8F1
:100F5000003023F00103CCF800300123D2E90FCE9A
:100F600003FA0EF3CCF804304FF480731384CA688C
:100F700022F49072CA604A6922F001024A6120217B
:100F800080F83A10002080BD70B506460068016800
:100F9000C26844690B0740D002F4907504F0010464
:100FA0002D194ED0CD071FBF12F48075F56B45F09B
:100FB0000105F5634D0705D5002C1EBFF56B45F007
:100FC0000205F5638D0705D5002C1EBFF56B45F0B6
:100FD0000405F563002B05D5002C1EBFF36B43F011
:100FE0000803F363F36B002B00F081801140890646
:100FF00040F1EE8096F83A10222940F0E980B1687D
:10100000B1F5805F5DD13269B16A4068002A00F0B5
:10101000A380C0B221F8010BA2E011408A0611D5CD
:1010200096F83A10222962D1B168B1F5805F3CD1BF
:101030003269B16A4068002A4FD0C0B221F8010B72
:101040004FE011400A060AD4490658BF70BDC16876
:1010500021F04001C160202086F8390070BD96F86B
:101060003910212943D1B268316AB2F5805F0AD1C3
:101070000A886FF35F2242603269002A14BF01318F
:101080000231316203E04A1C326209784160F18C1E
:101090000139F18409042AD1C16821F08001C160BD
:1010A000C16841F04001C16070BD316940680029EC
:1010B000B16A01F10102B26218BF00F07F0008704E
:1010C00010E0316940680029B16A01F10102B262A1
:1010D00018BF00F07F00087043E06FF35F2021F835
:1010E000020BB162F08D0138F085000400D070BDB4
:1010F000306843F24852C2F20002C168964221F0C1
:101100002001C160C16821F48071C160416921F092
:10111000010141614FF0200041F2280186F83A00B8
:1011200040F61C50C2F2000018BF08444FF4815131
:10113000425800F58151012A1CBF01220A6041F288
:1011400024028258002AD2D041F218024FF4806360
:1011500083500020086070BD6FF35F2021F8020B00
:10116000B162F08D411EF1850904306830D1C1684B
:1011700043F2485341F22802C2F2000321F0200159
:101180009E42C160C16821F48071C160416921F053
:10119000010141614FF0200186F83A1040F61C51E0
:1011A000C2F2000118BF11444FF481528B5801F56F
:1011B0008152012B1CBF0123136041F22403CB5841
:1011C00033B141F218034FF48065CD500021116016
:1011D0004169F26B01F0400102F00802891858D011
:1011E000C16821F49071C160416921F00101416140
:1011F000202186F83A104169490632D5416921F02B
:1012000040014161706B60B342F2B101C0F6000170
:10121000416390F82110022954D102682F23C4F2AF
:10122000020311689A4221F00E011160116821F049
:101230000101116040F20401C4F2020148DD3023D3
:10124000C4F202039A424FD04423C4F202039A42EA
:101250004DD05823C4F202039A424DD14FF480334B
:1012600052E03046FFF72EFE40F61C5143F2485242
:1012700041F22800C2F20002C2F20001964218BFF9
:10128000014430464FF400621431BDE8704000F074
:101290007BBA3046FFF716FE40F61C5143F2485227
:1012A00041F22800C2F20002C2F20001964218BFC9
:1012B000014430464FF40062143100F065FA00201A
:1012C000F06370BD04218163BDE8704000F0F0BEA2
:1012D0000823C4F202039A420CD01C23C4F2020376
:1012E0009A4209D110230FE04FF480730CE04FF4C1
:1012F000805309E0012307E001F168064FF0807395
:10130000B24208BF4FF480130B604FF48071018428
:10131000BDE8704000F0CCBE002804BF012070473B
:101320002DE9F04F85B0044690F8390040F60008EA
:1013300041F2040AC4F20108C4F2020A002840F093
:101340001B81002544F2004184F83850C4F20001AA
:101350002068884200F08B8043F60001C4F201014E
:10136000884240F0098141F2180001AEC4F2020047
:10137000016841F4804101603146006800F480401A
:101380000190019803200490022002904FF4007015
:1013900001904046FFF7B4FB00254FF480603146D2
:1013A000CDE9025501904046FFF7AAFB42F6D872FC
:1013B0004FF0100CAAF6AC714FF254094FF40056DE
:1013C00020204FF0800EC2F20002CFF6FF79C2F863
:1013D00040C0C2E9001508F57841C2E9025EC2E9E1
:1013E0000455C2E9060640F20A26D1635AF80930CC
:1013F00066F30D1343F21C064AF809304FF4807966
:10140000C2E90C55C2E90A559563C2F20006AAF575
:101410007C63A2F82090626354620C22C6E9003C0F
:10142000C6E9025EC6E90455C6E906550923C6E9C0
:101430000F124FF24001CFF6FF715AF8012063F30B
:101440000D124AF801204EF60C51C6E90C55C6E9BA
:101450000A55B563A6F8209026637462CEF20001A7
:1014600009684EF22541CEF200010D707FE041F295
:10147000180001AEC4F20200416841F4003141603D
:101480003146406800F40030019001980320049038
:1014900002200290042001904046FFF731FB082013
:1014A000CDE90255314601904046FFF729FB43F252
:1014B000600014214FF4005220234FF0800CAAF654
:1014C00098764FF4807EC2F200000164C0E90065A6
:1014D000C0E9025CC0E90455C0E906324FF2680277
:1014E00008F5784340F20A21C363CFF6FF725AF839
:1014F000026061F30D1643F2A4014AF80260C0E9EC
:101500000C55C0E90A558563A0F820E06063446289
:10151000C2F200011026AAF684721820C1E9002642
:10152000C1E9025CC1E90455C1E90655C1E90F30C2
:101530004FF27C000923CFF6FF705AF8002063F3C6
:101540000D124AF800204EF60C50C1E90C55C1E9C5
:101550000A558D63A1F820E021634C62CEF20000B1
:1015600000684EF22540CEF20000457040204EF259
:101570000411CEF200010860242041F20C6584F8C9
:1015800039002068C16821F40051C1600169E26836
:1015900021F4405111430161A168D4E90423C668D4
:1015A0001143AE43194308F5405331439842C1609B
:1015B0004169A26921F4407141EA0201416140F2AE
:1015C0001C01C2F200010968DAF800B055D0676862
:1015D000DAF80020DAF8003045F27A5C4FF01908AA
:1015E00048F21F5EC0F6000CC5F2EB1EC3F30226E4
:1015F000C2F302221CF806601CF8022021FA06F54C
:1016000021FA02F205FB08F3BD0002FB08F2B3FB6E
:10161000F5F3B2FBF5F2A3FB0E76D21A7609642736
:1016200006FB17363223324403EB0212A2FB0E23D1
:10163000F02202EA5312CBF302231CF8033021FA02
:1016400003F303FB08F3B3FBF5F3A3FB0E376FF0D3
:101650000F0303EA57031A44DAF80030C3F30223F6
:10166000DAF800701CF80330C7F3022721FA03F3FD
:1016700003FB08F3B3FBF5F354E06568DAF8009078
:10168000DAF8003045F27A5C4FF0190848F21F5E34
:10169000C0F6000CC5F2EB1EC3F3C226AD001CF869
:1016A000066021FA06F303FB08F3B3FBF5F3A3FB93
:1016B0000E677E09642706FB1736C9F3C227CBF3F2
:1016C000C2221CF807701CF8022021FA07F721FA41
:1016D00002F207FB08F702FB08F2B7FBF5F7B2FBD3
:1016E000F5F2FB1AA2FB0E27334432266FF00F02ED
:1016F00006EB031302EA5702A3FB0E36F02303EABC
:1017000056131A44DAF80030C3F3C223DAF8007033
:101710001CF80330C7F3C22721FA03F303FB08F3D5
:10172000B3FBF5F31CF80770F94048F21F5701FBB3
:1017300008F1C5F2EB17B1FBF5F1A1FB07655B1AE8
:101740006E09642506FB15111944322303EB0111C0
:10175000A1FB0713C3F3431111438160016921F415
:1017600090410161416921F02A014161C16841F460
:101770000051C16000202021E06384F8391084F812
:101780003A1005B0BDE8F08F034690F83A002028E3
:101790001CBF02207047002918BF002A01D1012078
:1017A000704793F83800012804BF022070472DE9E4
:1017B000F04181B000200127222442F2F11542F2CB
:1017C0007916D8639A85996283F8387083F83A401D
:1017D00042F2ED04C0F60005C0F60006D3F834E08E
:1017E000C0F60004CEE90A65CEE90C409EF8204020
:1017F000D3F800C0012C2FD08EF820709EF8214025
:10180000012C26D1002501240CF10408CEF8385013
:1018100002258EF82150DEF800502E6826F00106D1
:101820002E60DEE90F67BC4074606A60DEF8042059
:10183000102A424608BF0A46AA6008BF4146E9602E
:10184000296841F00E012960296841F001012960F1
:1018500002E000218EF820100090DCF800100091CA
:10186000DCF804100091009983F83800DCF80C10C3
:1018700041F48071CCF80C10DCF8141041F0010137
:10188000CCF81410DCF8141041F04001CCF814101E
:1018900001B0BDE8F0810000FEE70000FEE70000B7
:1018A00070470000704700002DE9F04F83B00D46EF
:1018B00040F664219146C2F200010A788ABB44F2E4
:1018C000475345F2D55640F60C37002240F61C3EF1
:1018D0004FF4007C0324C0F252038A62C0F6000673
:1018E000C2F20007C2F2000EC1F803301023C1E9B2
:1018F00018678B6645F25243CA62C1E90444C1E9E4
:10190000066EC1E908C2C1E91C22C0F25403C1F845
:10191000073044F25353C4F247730B60CA66202267
:101920008A7100EB400001EBC004EFF311824FF02D
:10193000200181F311880192E06A022812D0012867
:1019400047D0002850D1264656F8247F7068F943C6
:10195000B8429CBF0844216A084448456AD24FF007
:10196000000984E054F8247FA4F10800A4F1040BDA
:10197000A24604F104084C464FF00009029000BF53
:10198000D8F80000F943B84204D9DBF8002001443C
:1019900004E000BFDBF80020084481180298D61B41
:1019A000B142006838BF0E46A642294628BF2646E7
:1019B00032463844FEF7C8FBDBF80010F019354416
:1019C000B144471A18BF0746A41BCAF80070D7D104
:1019D0004DE0A04658F8247FD8F80400F943B842F7
:1019E00005D90844216A05E04FF000093FE00844AA
:1019F000216A0844484538BF814654F81C0FCE1B65
:101A0000B145384408D229464A46FEF79DFB09EB0A
:101A10000700C8F800002AE029463246FEF794FB8A
:101A2000A919A9EB060520682A46FEF78DFBC8F820
:101A300000501CE054F81C0F61683844A1EB070803
:101A4000C84507D929464A46FEF77EFB07EB090041
:101A500030600CE029464246FEF776FB05EB0801B4
:101A6000A9EB080520682A46FEF76EFB3560019851
:101A700080F31188484603B0BDE8F08F82B02DE9AD
:101A8000F04F99B022A8CDE922234FF000080D466F
:101A90004FF0FF3914AC42F2107B03904020CDF898
:101AA0006080CDF85880159004A814900020CDF8DF
:101AB0005C8000BF2F4617F8011B25290CD0002998
:101AC00000F0A482DDE91523581C904234D9184651
:101AD00090423AD043E000BF6B1D4FF0000A3978C6
:101AE000A1F123060D2E15D80122DFE806F00C1314
:101AF0001313131313130F13071313114AEA020AD4
:101B000001330137EBE70822F8E700BF0422F5E7CD
:101B10000222F3E7A1F13002092A23D900222E295B
:101B200040F096803B4613F8011FA1F13006092EC4
:101B300051D900261F468CE0149AD154169017995B
:101B4000159A01311791904209D114991898FFF70D
:101B5000ABFE1699884240F06482CDF858803D462D
:101B600063E100BF002200BF02EB820201EB4201F1
:101B7000A1F1300213F8031CA1F13006092E62D83E
:101B800002EB820201EB4201A1F1300213F8021CC8
:101B9000A1F13006092E00F2C38002EB820201EBB4
:101BA0004201A1F1300213F8011CA1F13006092E07
:101BB00000F2BB8002EB8202043701EB4201A1F18B
:101BC000300213F8041BA1F13006092ECCD91F1FD7
:101BD0002E29A7D03CE07B1D002600BF06EB860621
:101BE00001EB4601A1F1300613F8031CA1F1300509
:101BF000092D00F2208106EB860601EB4601A1F1DA
:101C0000300613F8021CA1F13005092D00F21581F0
:101C100006EB8606043701EB4601A1F1300613F806
:101C2000011CA1F13005092D13D806EB860601EB46
:101C30004601A1F1300613F8041BA1F13005092D6E
:101C4000CCD91F1F05E001372E293FF46BAF00BF31
:101C500000267D1C2539532900F2E780DFE811F0CA
:101C60006A00E500E500E500E500E500E500E500C7
:101C7000E500E500E500E500E500E500E500E5003C
:101C8000E500E500E500E500E500E500E500E5002C
:101C9000E500E500E500E500E500E500E500E5001C
:101CA000E500E500E500E500E500E500E500E5000C
:101CB000E500E500E500E500E500E500E500E500FC
:101CC000E500E500E5005700E500E500E500E5007A
:101CD000E500E500E500E500E500E50073007F00B4
:101CE000E500E500E5005400E500E500E5005400EE
:101CF000E500E500E500A600E500E500B100E5002F
:101D0000DA00E500E500570015F8011BA2E703988B
:101D1000011D03910168CDE9002A2046102281E0CF
:101D200002372E293FF4FEAE92E703372E293FF407
:101D3000F9AE8DE7DDE91521481C90420BD8149AC5
:101D4000252353547EE0039B181D0390DDE91521E4
:101D5000481C904273D90846904266D179E00399B5
:101D60000B1D03930F68002F394648BF79420A299B
:101D70007BD34FF0040900BF63297CD9B1F57A7F8A
:101D80007CD359457CD341F2597309F10409CDF252
:101D9000B713A1FB0334630B48F29F64C0F2010444
:101DA000A1421946E8D8A9F1030969E00398102275
:101DB0000823011D039101680820CDE90008204691
:101DC00031E003990A1D03920E6800BF337863B3B4
:101DD000DDE91527791C914204D9394691420AD090
:101DE00013E000BF1498C35516911798159A013047
:101DF0001790914209D114991898FFF755FD16993B
:101E0000884235D1CDF8588017980136B0F1FF3FA0
:101E1000DCDC0AE00398011D03910168CDE9002A8A
:101E200020460A22334602F013FB1798B0F1FF3F19
:101E30003FF740AEFCE002370BE7033709E71A68CB
:101E4000149B5A5416901799159A01311791904284
:101E5000EBD114991898FFF727FD169988420CBF0B
:101E6000CDF85880CDF85C90DFE74FF0010907E02E
:101E7000CDF85C90D9E7A9F1020901E0A9F10109C7
:101E8000B14538BFB146F2B10021002F0AF004037A
:101E9000B8BF012141EA9301A2EB010B1AF0020441
:101EA00016D0AEB90028C0F29B80B7F1FF3F3CDDF1
:101EB0005FEA4A7056D5DDE91521481C90423AD8B0
:101EC000149A2B233DE04FF0000B1AF00204E8D1E6
:101ED0005FEACA71E6D1BBF1000FE3D0BBF1000F9E
:101EE00079D0D945DED2DDE91523591C914203D9B9
:101EF000194691420AD013E014982022C254169138
:101F00001798159A01301790914209D11499189891
:101F1000FFF7CAFC1699884258D1CDF85880179817
:101F2000ABF1010B0028D9DA5AE0DDE915217F4237
:101F3000481C904203D9084690420AD012E0149AF5
:101F40002D23535416901799159A013117919042E9
:101F500008D114991898FFF7A7FC1699884235D133
:101F6000CDF85880179800283ADB002C40D00AF0B2
:101F7000010131433CD1BBF1000F39D0302400BF07
:101F8000BBF1000F32D0D94532D2DDE91523591CFF
:101F9000914203D91946914209D012E01498C454D1
:101FA00016911798159A01301790914209D11499FA
:101FB0001898FFF779FC1699884207D1CDF8588018
:101FC0001798ABF1010B0028DADA09E04FF0FF397E
:101FD000CDF85C9006E04FF0000B0028BFF665AF2F
:101FE0004FF0FF3914AC42F2107B1EE74FF0000BAC
:101FF00014AC39460A2233464FF0FF39CDE900BA16
:10200000204602F025FA42F2107B0EE701280FDB92
:10201000169A52B104A90020FFF746FCDDE916101C
:1020200004E04FF0FF30179002E0002108441790C1
:1020300019B0BDE8F04F02B07047000070470000D3
:1020400043F2D050C2F2000001680131016043F256
:10205000CC50C2F2000001680131016070470000FD
:1020600041F200000022C4F20200CFF6FF02016834
:1020700041F001010160416811404FF6FF7241607B
:10208000CFF6F662016811400160016821F48021F9
:102090000160416821F4FE0141604FF41F0181603D
:1020A0004EF608504FF00061CEF20000016070471C
:1020B00010B5446A0020E085E0842046FEF702FF68
:1020C00040F61C5143F2485241F22800C2F200028D
:1020D000C2F20001944218BF014420464FF400624E
:1020E0001431BDE81040FFF74FBB000010B5446A43
:1020F0002068416994F83920212A0BD111F0800120
:1021000008D00021E184C16821F0C001C160202114
:1021100084F83910416994F83A20222A0FD111F03D
:1021200040010CD00021E185C16821F49071C160AB
:10213000416921F001014161202084F83A00E06BFF
:1021400040F01000E0632046FEF7BCFE40F61C5154
:1021500043F2485241F22800C2F20002C2F20001EA
:10216000944218BF014420464FF400621431BDE888
:102170001040FFF709BB00000268416A1068800642
:1021800011D40020C8850868C26822F48072C26039
:10219000426922F001024261426922F0400242613A
:1021A000202081F83A0043F2485340F61C5041F297
:1021B0002802C2F20003C2F2000099424FF481519A
:1021C00018BF1044425800F58151012A1CBF01225A
:1021D0000A6041F224028258002A08BF704741F287
:1021E00018024FF48063835000200860704700009D
:1021F00043F24853406A40F61C5141F22802C2F2B1
:102200000003C2F2000198424FF4815018BF1144FC
:102210000A5801F58150002A1CBF0022026041F2D9
:1022200024028A58012A08BF704741F214024FF471
:1022300080638B5001210160704700000168406A93
:102240000968890648BF70470021C1840068416958
:1022500021F080014161C16841F04001C1607047D7
:10226000704700002DE9F04182B043F2C85043F2BC
:1022700048540121C2F20000C2F20004017020465D
:10228000FEF782FE20680068C0065CBF02B0BDE8B1
:10229000F08140F61C554FF000084FF48156CDF800
:1022A0000480C2F20005686801680A680192496802
:1022B00001910199AF59E96809684C68FEF702FE7F
:1022C0004FF48060002F08BF4FF40060071B012F00
:1022D0004FDB0CD14FF4815041F21C0101222858F0
:1022E00005EB802040696A50C5F8140841E042F2CD
:1022F0005000285890F82010012931D04FF4815116
:102300004FF0010C6A5880F820C090F82130012B62
:1023100023D1002305EB82228363022302F1140EF2
:1023200080F82130724603681C6824F001041C60A8
:10233000D0E90F410CFA01F161605F6005F614010C
:102340004468102C08BF0A469A6008BF7146D960DD
:10235000196841F00101196002E0002180F82010A5
:1023600000210222FEF7D8F9002804BF41F21C0028
:102370002F5045F8068005F114014FF4006268689B
:1023800002B0BDE8F041FFF7FFB900002DE9F043CE
:1023900081B043F2C85043F288540121C2F20000D8
:1023A000C2F2000401702046FEF7EEFD20680168CD
:1023B000C9065CBF01B0BDE8F0834FF0000840F6ED
:1023C0001C5542F2480941F22C07CDF80080C2F2B8
:1023D00000050168009140680090009855F8094098
:1023E00041F23400285800684668E859FEF76AFD53
:1023F0004FF48060002C08BF4FF40060841B012C58
:1024000055DB0FD142F2480041F23C01012228582D
:1024100005EB8020405842F244016A5041F63C01ED
:10242000685044E042F25000285890F820100129EA
:1024300034D042F248014FF0010C6A5880F820C0B5
:1024400090F82130012B26D105EB822241F23C038A
:1024500002EB030E002383630223724680F82130CF
:1024600003681E6826F001061E60D0E90F610CFAB1
:1024700001F171605C6041F63C0146682944102E10
:1024800008BF0A469A6008BF7146D960196841F0D2
:102490000101196002E0002180F8201000210A22C9
:1024A000FEF73AF9002804BF42F244002C5045F8E8
:1024B000098041F23C014FF40062E859294401B01F
:1024C000BDE8F043FFF760B9D0F8181200290EBF3D
:1024D00002200020C1F8140270470000D0F820222A
:1024E00001F00F0CD0F8183202EB4C12002BB2F8AE
:1024F0004422C3F80C2204BF0220704780B5013982
:1025000003F5037C18BF0121D0F81C024A00D3F860
:102510000412C368084661469847002080BD000049
:1025200010B58121044600F00DFA2046012100F08B
:1025300009FA2046822100F005FA2046832100F0A6
:1025400001FA2046032100F0FDF92046842100F025
:10255000F9F9D4F8180230B1D4F81C024068804769
:102560000020C4F81802002010BD000010B5D0F8FB
:102570001C1291B1D0F8184294F800C2BCF1FF0FC0
:102580000BD0B0F80C32D1F808E094F80122604684
:102590002146F047FF2084F80002002010BD000013
:1025A0000A21018040F27810C2F20000704700005A
:1025B0008D21018040F25800C2F2000070470000F7
:1025C0008D21018040F2E800C2F200007047000057
:1025D0008D21018040F28410C2F20000704700009B
:1025E0002DE9F0410446007CB0B120468121022251
:1025F000402300F03DFA204601210222402300F052
:1026000037FA204683210222402300F031FA204687
:1026100003210222402319E02046812102224FF4A7
:10262000007300F025FA2046012102224FF40073C6
:1026300000F01EFA2046832102224FF4007300F0BE
:1026400017FA2046032102224FF4007300F010FA1B
:1026500020468221032208234FF0030800F008FAE5
:10266000204684210322082300F002FA40F2444766
:10267000C2F20007C4F81872D4F81C020068804740
:102680000026C7F81462C7F81862227CD7F8041233
:10269000D4F82002002A4FF00102C0F85C120CBFEF
:1026A0004FF400754025C0E9985600F51271A0F866
:1026B0004822006800F00AFBD4F82012D7F8040280
:1026C00001F5277261C2A1F88882086801F52271BC
:1026D00000F0FCFA0020BDE8F081000070B504466F
:1026E00008780D4610F060011ED0202937D1EA8805
:1026F000BAB3D4F8186200063DD4687886F801228F
:1027000086F800020320C4E94222C4F8F401002044
:10271000D4F82012C1E98F62C1F84402A1F828025E
:10272000086801F50A7140E068780A2817D101208D
:10273000022140F24023C4E90600C4F8F41100214C
:10274000C2F20003D4F82022C2E90F3051644FF4E2
:102750008070114621F8280F106800F0B7FA0020A9
:1027600070BDD4F81C12AB88687800228E682946A8
:10277000B047002070BDD4F81C12AB886878D1F83F
:1027800008C03146E047E8880221C4E90600C4F8E1
:10279000F4110021D4F82022C2E90F6051644FF4F3
:1027A0008070114621F8280F106800F08FFA002081
:1027B00070BD000080B504A000F05EF840F2442037
:1027C000C2F2000080BD00BF43444320436F6E66E9
:1027D000696700001220088040F21420C2F2000055
:1027E0007047000080B504A000F046F840F2442095
:1027F000C2F2000080BD00BF43444320496E7465AF
:1028000072666163650000000420088040F2382091
:10281000C2F200007047000080B504A000F02CF860
:1028200040F24420C2F2000080BD00BF4465762E15
:102830004964760080B504A000F01EF840F2442000
:10284000C2F2000080BD00BF4475616C506F7274AD
:102850000000000080B504A000F00EF840F2442013
:10286000C2F2000080BD00BF303030303030303038
:10287000303041310000000080B5002860D002787F
:102880008AB1831C4FF0000C13F8012C6AB11A783E
:1028900072B15A787AB11A1D9B780CF1040C002B96
:1028A0001346F1D109E002220CE04CF0010C04E0E7
:1028B0004CF0020C01E04CF0030C5FFA8CF20223A6
:1028C00003EB420240F2442E03230A80C2F2000EC0
:1028D0008EF801308EF8002002788AB3831C022023
:1028E0004FF0000CC1B20EF8012041F001010EF8CA
:1028F00001C013F8012C1AB3811CC9B20EF80120D3
:1029000041F001010EF801C01A78CAB1011DC9B227
:102910000EF8012041F001010EF801C05A78002A9A
:1029200008BF80BD811D0830C9B20EF8012041F0FA
:1029300001010EF801C0191D9A780B46002AD1D169
:1029400080BD000010B5D0F820E201F07F0C0B062E
:102950000EEB4C1000F1280258BF00F50A72C809AE
:10296000507082F800C09EF82834012B01D110214C
:102970006EE00123490048F2C00C8EF82834C9B239
:10298000937ADEF8002032F8114002EB410143B3A4
:1029900004F4804278B33AB1088840F60F721040D0
:1029A0000CF57F52104308800888400606D5088839
:1029B00040F60F72104040EA0C000880088840F68C
:1029C0000F7210400CF57F52104340F63F720880A2
:1029D00008881040ACF140021043088043F60F73A2
:1029E0002DE0E0B3600628D5088840F60F7210404D
:1029F00040EA0C0020E03AB1088840F60F7210401F
:102A00000CF57F52104308800888400606D50888D8
:102A100040F60F72104040EA0C000880088840F62B
:102A20000F72104043F60F7240EA0C0008800888CD
:102A30001040ACF140021043088040F63F73088814
:102A4000ACF1400218401043088000218EF8281491
:102A500040F20020C0F20120C840C0B210BD6004A6
:102A6000BCD5088840F60F7210400CF57F52B3E7D2
:102A700070B5D0F820C201F07F0E0D060CEB4E149D
:102A800004F1280058BF04F50A700361CB094370B4
:102A900080F800E0C2709CF82844012C01D110207D
:102AA0000CE10124032A8CF82844DCF800400DD8FE
:102AB000DFE802F0020F19214A0048F68F16D5B25E
:102AC00034F81520324002F500721DE04A00D5B2FC
:102AD0001CE04A0048F68F16D5B234F81520324073
:102AE00002F5806210E04A0048F68F16D5B234F83D
:102AF0001520324008E04A0048F68F16D5B234F867
:102B00001520324002F5C06224F8152034F8152053
:102B100040F60F763240114348F28002114324F808
:102B2000151004EB4501857A002D48D00D8840F63C
:102B30000F66002B05EA060502F5807645EA0605D4
:102B40000D80C588B4F8506006EBCE0625F001056F
:102B500004EB4606C6F800540089B4F8505005EB63
:102B6000CE0620F0010004EB4606C6F808040888EB
:102B700000F4804040D038B1088840F60F73184008
:102B800002F58043184308800888400607D5088866
:102B900040F60F73184002F140031843088008887C
:102BA00040F60F73184002F58043184340F63F7318
:102BB00008800888184043F60F73104341E0858869
:102BC000B4F85060002B06EBCE0625F001053DD091
:102BD00004EB4600C0F800540888400607D5088872
:102BE00040F60F73184002F140031843088008882C
:102BF00040F63F7320325BE038B1088840F60F732F
:102C0000184002F58043184308800888400607D51D
:102C1000088840F60F73184002F1400318430880FB
:102C2000088840F60F73184002F14003184343F63A
:102C30000F7308800888184002F54053584040F64A
:102C40003F73088008881840104333E004EB4606C1
:102C50004FEACE03C6F8085404F20C45B4F85060AD
:102C6000006933443F280BD3460140F2FF34C006CD
:102C700026EA040608BF06F5F84646F4004004E0DC
:102C800000F0010606EB5000800280B245F8130008
:102C90000888400407D5088840F60F73184002F5ED
:102CA000804318430880088843F60F7302F54052AA
:102CB00018405040088000208CF8280440F2002181
:102CC000C0F2012121FA00F0C0B270BD2DE9F0413F
:102CD0000A69D1F818E01346964588BF7346A3EBFE
:102CE00002038B6188BF96464A788B7A012A7AD193
:102CF000002B7ED00B7830F82320B0F850704FEACC
:102D0000430C07EBC3071FFA8EF300EB47070133B1
:102D1000C7F804E40027B7EB530F00F06F815206A9
:102D20004FEA53034FF00802A3F1010E58BF0622E9
:102D300013F003058A5A496900EB420202F58062EA
:102D40000BD00E461446012D36F8027B24F8047B86
:102D500040F0C880224673463146BEF1030FC0F0F2
:102D60004D81A3F1040E012404EB9E0414F003042E
:102D70000DD00D88012C15804D8895808D8815818A
:102D8000CD88958140F0F380083110327346BEF152
:102D90000C0FC0F0338100BF0F88103B17804F88A5
:102DA00097808F881781CF8897810F8917824F89E5
:102DB00097828F891783CF8997830F8A17844F8AC9
:102DC00097848F8A1785CF8A97850F8B17864F8BAD
:102DD00097868F8B1787CF8B01F12001978702F1A0
:102DE0004002D9D10AE1002B43D0002A58D00978FB
:102DF000A9E01FFA8EF200230132B3EB520F00F06C
:102E000042814FEA520C8A881CF00305ACF101089C
:102E100000EB420202F580634A690BD016461F465A
:102E2000012D36F8024B27F8044B40F093803B46C7
:102E3000C4463246B8F1030FC0F02581ACF104045A
:102E4000012505EB940515F0030500F0F2801688C6
:102E5000012D1E8056889E8096881E81D6889E8170
:102E600040F0A18008321033A4460C2C80F0E4809E
:102E700009E1B0F85020097800F20C43BEF13F0F91
:102E800002EBC10225D34FEA4E1740F2FF36B7439B
:102E90005FEACE6608BF07F5F84747F400471DE034
:102EA000B0F85020097800F20444BEF13F0F02EB65
:102EB000C1024FEAC10321D34FEA4E1740F2FF3659
:102EC000B7435FEACE6608BF07F5F84747F4004707
:102ED00019E00EF0010707EB5E07BF02BFB243F82F
:102EE000127030E04C88022D948052D1023B0431A4
:102EF0000832BEF1030FBFF434AF7FE00EF00107DC
:102F000007EB5E07BF02BEB2BEF13F0F44F812608E
:102F1000B0F850201A4400F20C430CD34FEA4E177D
:102F200040F2FF36B7435FEACE6608BF07F5F847C1
:102F300047F4004704E00EF0010707EB5E07BF020D
:102F4000BEB243F8126000EB810043F60F724BF201
:102F50008001A9E05488022D9C8035D1ACF1020C8F
:102F600004320833B8F1030FBFF468AF8BE00D896A
:102F7000022C15824D8995828D891583CD89958383
:102F80002DD1083B10312032BEF10C0FBFF404AF3D
:102F900034E08C88033B063114810C32BEF1030F00
:102FA000BFF4DFAE2AE01689022D1E8256899E826A
:102FB00096891E83D6899E832FD1ACF1080C1032DE
:102FC00020330C2C38D25EE09488ACF1030C06322E
:102FD0001C810C33B8F1030FBFF430AF53E00C8AFF
:102FE0000C3B14844C8A94848C8A1485CC8A1831C6
:102FF00094853032BEF10C0FBFF4CEAE30F81C1009
:1030000040F60F7211404BF28002CFF6FF7202F5CC
:103010008052114320F81C1040E0158AACF10C0CD2
:103020001D84558A9D84958A1D85D58A18329D8573
:1030300030330C2C27D300BF1488BCF1100C1C803B
:1030400054889C8094881C81D4889C8114891C821B
:1030500054899C8294891C83D4899C83148A1C84FF
:10306000548A9C84948A1C85D48A9C85148B1C86E3
:10307000548B9C86948B1C87D48B02F120029C87F6
:1030800003F14003D8D1B0F85020097802EBC10217
:103090004FEA410C00EB4202C2F804E400EB4C00A2
:1030A00048F2B00140F63F7203881A405140018057
:1030B000BDE8F0812DE9F04F83B043F2E809C2F298
:1030C0000009D9F80000B0F94410B1F1FF3F01F355
:1030D00040804FF00008ADF80880ADF80680B0F9E8
:1030E0004410B1F1FF3FADF8081001F3328048F60B
:1030F0000F7B61E10CF07F001CF080030AEB0011F4
:1031000001F1140208BF01F58272DAF82072002B77
:1031100007F1280107EB401601EB401000F1020017
:1031200008BF06F22A200078002818BF012010608E
:103130000220CAE90600CAF8F401C7E90F204FF4DB
:103140008070C7F84480388538684BE3002B40F026
:10315000F7875FEA4C6000F0B785DAF820220CF0C0
:103160007F0302EB431702EB4C1007F128065FEADE
:103170000C674FEADC1758BF00F50A76777033709A
:1031800086F8028092F82804012800F09885012032
:10319000002F82F828044FEA4C001368C0B233F8BD
:1031A000106000F0DB8049F290057606A5F57E6799
:1031B00009D533F8106040F60F74A5F57D652640FB
:1031C0002E4323F8106040F63F76D9E0BEF1050F9C
:1031D00000F2C885DFE80EF0039FA6ADB4BBDAF8B5
:1031E00010129AF810004A6800F0DABD9AF8100040
:1031F000002840F0B785DAF81402416B0DF10A009F
:1032000088470CE09AF81000002840F0AB85DAF807
:103210001402016B0DF10A00884707214170BDF8C7
:103220000A20002A00F08C87BAF80E12002900F05C
:1032300087878A4238BF11460222ADF80A10CAE9D0
:103240000611CAF8F421DAF8202202F13C0383E8DF
:10325000030111464FF4807021F8280F1068C1E275
:103260000220CAE9061101220AF10401CAF8F40198
:10327000DAF82002C0E90F1201464FF48072C0F85C
:10328000448021F8282F0068ACE2BEF1000F2BD05B
:10329000DAF80400704500F01785DAF814124A686D
:1032A000C1B25046904740F24120C2F2000001787E
:1032B000CAF80410DAF81402002800F053850268F6
:1032C00050469047002840F04D8500F0FDBC138823
:1032D00043F63F773B4049F290077B4022F820308D
:1032E00081F8288400F02CBF0220CAF804807146BF
:1032F0008AF8FC01DAF81402426800F0E3BC43F6F5
:103300000F733B40A6F110077B4022F8103081F884
:10331000288400F015BFDAF810129AF810008A68B5
:1033200000F03EBDDAF810129AF81000CA6800F0FA
:1033300037BDDAF810129AF810000A6900F030BDB3
:10334000DAF810129AF810004A6900F029BDDAF88C
:1033500010129AF810008A6900F022BD77040BD58C
:1033600033F8107040F60F7637404BF2800606F5C2
:103370008056374323F8107043F60F764BF28007E0
:1033800033F810502E40774023F8107082F82884CC
:1033900000F095BC1F8843F63F76374049F290060F
:1033A000774023F82070F1E743F60F77374049F272
:1033B0009006103E7740E7E7BDF8081011F00F05C2
:1033C0005ED030F825104FEA450AADF80610BDF979
:1033D0000610B1F1FF3F00F3908130F81A1040F66B
:1033E0008F72114009EB451220F81A1002F50A718C
:1033F00092F83232002B00F0EE8091F800B030F8F5
:103400002B30B0F850104FEA4B0C01EBCB015B04B2
:1034100000EB410100F10F81D1F80C346FF39F23D1
:10342000002B00F03781591CB8EB510F00F03381AD
:103430004E08B2F83012D2F83C7216F0030800EBD6
:10344000410101F58064A6F1010112D000912146ED
:10345000BE46B8F1010F51F8049B2EF8029B40F0D4
:1034600030830C46009943F2E8097746C2F200091E
:103470000E464FF000080329C0F00D8195E300BF10
:10348000BDF808200188D2062FD401EA0B01018083
:10349000B0F8501099F8282001EBC20100EB410070
:1034A000D0F804046FF39F20C9F84400D9F83C1009
:1034B0000844C9F83C000020FDF72AFCD9F8400078
:1034C00099F82410002900F03B86002840F0388647
:1034D000D9F8000099F8241041F08001C9B2A0F891
:1034E0004C1089F8248000F02BBEADF80610BDF812
:1034F000061009053FD4BDF90610B1F1FF3F00F3F6
:103500001F86018840F68F7211400180B0F850107C
:1035100099F8282201EBC20100EB4101D1F80C140B
:103520006FF39F210029C9F8441200F0DF854A1C7F
:10353000D9F83CC2B8EB520F00F0D4855308B9F863
:103540002C2213F00305A3F1010600EB420000F565
:10355000806000F0078304466246012D54F8047B26
:1035600022F8027B40F0808320463346032E80F011
:103570005E8500F0B7BDB0F8501099F8282201EB35
:10358000C20100EB4101D1F80C146FF39F21C9F87F
:1035900044120131B8EB510F00F090814A08B9F89C
:1035A0002C1212F00303A2F1010700EB410101F517
:1035B000806100F022810E46012B56F8045BA9F8C9
:1035C0002C5440F01F8109F22E4331463A46032F16
:1035D00080F0378172E1B0F8503091F800B003EB21
:1035E000CB0100EB4101D1F80C346FF39F23002B8A
:1035F00000F00181591CB8EB510F58D04E08B2F8B9
:103600002C12D2F83C4216F0030EA6F1010C00EB8E
:10361000410101F5806700F071823946A046BEF194
:10362000010F51F8049B28F8029B40F0F7800F46E9
:10363000664644465CE2D1F804346FF39F234BB3F3
:10364000591CB8EB510F26D04E08B2F82E12D2F802
:103650003C7216F0030800EB410101F58064A6F10D
:10366000010112D000912146BE46B8F1010F51F878
:10367000049B2EF8029B40F02D820C46009943F2E9
:10368000E8097746C2F200090E464FF00008032908
:1036900001D3B1E2002330F81C1040F60F77394017
:1036A00049F29007A7F57D67394320F81C10D2E94D
:1036B0008F17D2F844621E441944002FC2F84462A6
:1036C000C2F83C1203D0D2F838229A4203D95846A5
:1036D000FDF79EFB0FE00BF07F0209EB421303F5B1
:1036E0000F7C8CE8820103F50A7183F8298283F844
:1036F0002822FFF7EBFA48F60F7BBDF8060000061C
:1037000040F11E85D9F8000009EB451404F12805A5
:1037100030F81A1001EA0B0120F81A1094F8321050
:1037200099B1297830F82120B0F8503003EBC1016D
:10373000520600EB41011ED4D1F80C346FF39F23E5
:10374000002B636422D0228E1DE0B0F8502029782F
:1037500002EBC10200EB4202D2F804346FF39F2364
:10376000002B636421D0A28DE16B00F0AFFD2978BE
:10377000D9F8000019E0D1F804346FF39F23002B2F
:10378000636403D0E28DE16B00F0A0FD2978D9F8E5
:10379000000040F60F7330F821201A404BF28003EE
:1037A00003F580531A4320F82120B0F8502002EB93
:1037B000C10200EB4202D2F804346FF39F2363642A
:1037C000D4E90F723B44002AE3630FD001F07F0776
:1037D00009EB471101F8287FC1E905320122C1F840
:1037E0001C804A70FFF772FA00F0AABC0846FDF789
:1037F0008FFA00F0A5BC002359E709F22C43032FF0
:103800001FD25BE04E68022BA9F82E6410D109F597
:103810008663023A0831032F13D24FE07968BEF174
:10382000020F618040F05F81023E043408375FE19F
:103830008B68033A0C31A9F8303409F23243032F74
:103840003CD3171F012606EB970616F003060DD092
:103850000D68012E1D804D685D808D689D80CD684E
:10386000DD8040F01D81083310313A460C2F25D3FE
:103870000F68103A1F804F685F808F689F80CF6805
:10388000DF800F691F814F695F818F699F81CF69D9
:10389000DF810F6A1F824F6A5F828F6A9F82CF6AC1
:1038A000DF820F6B1F834F6B5F838F6B9F83CF6BA9
:1038B00001F14001DF8303F12003D9D1018840F6F3
:1038C0008F7211400180012199F82C64D9F85CA411
:1038D0008AF8086206F01F0299F82D74022A8AF805
:1038E000097299F82EE499F82F444EEA0423AAF8B5
:1038F0000A3299F830C499F831044CEA0020AAF849
:103900000C02B9F83254CAE97D150AF50271AAF819
:103910000E5229D0012A31D0002A41D1092F00F2BC
:103920002182DFE817F00A00BA011F02C6011F0258
:10393000DC0111021F0242025A029AF8FC0100F057
:10394000FE00022840F00E82DAF80402022100286C
:1039500018BF012040004AF80C0FCAF8E811CAE964
:103960000311DAF8140233E206F06000202851D186
:10397000DAF81402826850469047E1E39AF8FC01B5
:10398000032808BF1CF0FC0F00F07C81EAE190F8EE
:103990002814012925D1A0F8288280F82A72CFE3C3
:1039A000DAF8200216F0800100EB411100F1280244
:1039B00008BF01F50A72F1095170012182F80080F7
:1039C000917090F82814012900F0BA83012143F680
:1039D0003F7380F8281401680A881A4049F290035E
:1039E00013E080F8287443F63F7649F290030168AB
:1039F0000A8832405A400A8080F82874A0F8288249
:103A000080F82A7201680A8832405A400A8080F899
:103A1000288495E3002F00F00E82012F00F016821B
:103A2000032F40F08D839AF8FC01032840F01382A5
:103A3000002B40F044814CF08000802800F03F8152
:103A4000DAF820220CF07F0002EB401702EB4C1357
:103A500007F128065FEA0C6758BF03F50A764FEABC
:103A6000DC17012377703070B37092F82834012B83
:103A700000F025810123002882F8283413683FF4E0
:103A800089AC33F820604000002F3FF48DAC40F645
:103A90003F77374049F29006A6F58056774073E4A9
:103AA0000D69022E1D814D695D818D699D81CD69F4
:103AB000DD815CD1083A103320310C2FBFF4D8AE31
:103AC000FCE66168B8F1020F79805FD1023E0437ED
:103AD000083460E06168B8F1020F79807DD1023E60
:103AE000043708347EE0B968033E0C37A180063401
:103AF00043F2E8094FF00008C2F20009BCF1030FDD
:103B0000FFF4D5ADA6F1040C012101EB9C0111F0ED
:103B1000030E00F0E3813968BEF1010F218079685E
:103B20006180B968A180F968E18007D10834103755
:103B30006646BCF10C0F80F0D581B8E53969BEF15D
:103B4000020F218179696181B969A181F969E181F6
:103B500040F0B981083E10342037BCF10C0F80F0E2
:103B6000C181A4E56246032E80F06182BAE20E6A4A
:103B70000C3A1E824E6A5E828E6A9E82CE6A303116
:103B8000DE8218330C2FBFF473AE97E6A168033EB4
:103B90000C34B980063743F2E80900994FF0000869
:103BA000C2F200090329FFF476ADA6F1040E01214B
:103BB00001EB9E0111F0030800F0C7812168B8F104
:103BC000010F398061687980A168B980E168F98066
:103BD0002AD1083710347646B7E1A168033E0C3489
:103BE000B980063743F2E80900994FF00008C2F2A5
:103BF00000090329FFF44FADA6F1040E012101EBEA
:103C00009E0111F0030800F0DA812168B8F1010F7C
:103C1000398061687980A168B980E168F98013D141
:103C2000083710347646CAE12169B8F1020F3981AC
:103C300061697981A169B981E169F98140F07A818D
:103C4000083E1037203480E12169B8F1020F398134
:103C500061697981A169B981E169F98140F0A48143
:103C6000083E10372034AAE14268022DACF8022049
:103C700040F0D481023B0CF104020830032E80F0A6
:103C8000D6812FE2DAF81402826850469047BAF8DB
:103C90000E02002840F0548216E09AF8FC0100F071
:103CA000FE0002285ED1012B40F04A82CAF804824D
:103CB00005E0012B40F044820120CAF80402DAF842
:103CC00014028268504690470420CAF8F401DAF8DA
:103CD0002002C0F83C80C0F84080FFF7CDBA2843EE
:103CE00000043FD19AF8FC0103283BD00EF07F047A
:103CF0008AF8FE41DAF8200290F8281401290DD044
:103D0000002C4FF0010180F8244080F8281403D1E2
:103D100001688022A1F84C2080F8288404214FF407
:103D20008072CAF8F4110146C0E90F88C0F84480D7
:103D300021F8282F0068FEF7C9FF002C0CBF0120D6
:103D400002208AF8FC01FBE1601E06280AD8DFE8A1
:103D500000F02214120808060400FFF753BAFFF718
:103D600045BAFFE7DAF820024FF480710127018598
:103D700080F82A700BE6FFF729BA9AF81010DAF8E3
:103D8000140200290CBF816AC16A0DF10A0088473C
:103D90000221FFF743BADAF810129AF810000A6805
:103DA0000DF10A019047FFF73ABA012DDAD19AF8DE
:103DB000FC01012103283FF453AA022832D14AF81A
:103DC000088F0220CAF8EC01CAE90411DAF81802D7
:103DD000C0F83CA00164FFF74FBA40F24120BEF1A9
:103DE000020FC2F2000080F800E0BBD29AF8FC019A
:103DF000012103283FF449AA022813D1BEF1000F84
:103E00003FF462AF03208AF8FC01CAF804E0DAF854
:103E1000140238B1026850467146904701210028CB
:103E20003FF452AFDAF820024FF480720127028586
:103E300080F82A10ABE59AF8FC0103283FF45AA950
:103E400002288FD15FEA4C600DD179E19AF8FC012C
:103E500003283FF47BA902287FF484AF4CF0800054
:103E6000802800F06D81DAF820120CF07F0001EB61
:103E7000401301EB4C1203F128075FEA0C6358BFB3
:103E800002F50A774FEADC1301227B703870BA70B2
:103E900091F82824012A00F053810122002881F89A
:103EA00028240A683FF413AA32F820704000002B3F
:103EB00049F290063FF423AA40F63F733B40A6F533
:103EC0008057FFF721BA396A0C3E2182796A6182F4
:103ED000B96AA182F96A3037E1821834BCF10C0F5B
:103EE000FFF4E5AB3968103E218079686180B968DC
:103EF000A180F968E1803969218179696181B969B5
:103F0000A181F969E181396A2182796A6182B96A9C
:103F1000A182F96AE182396B2183796B6183B96B84
:103F2000A183F96B07F14007E18304F12004D9D1A3
:103F3000FFF7BDBB216A0C3E3982616A7982A16AB2
:103F4000B982E16A3034F98218374FF00008BEF1C7
:103F50000C0FFFF4A0AB00BF2168103E39806168F0
:103F60007980A168B980E168F98021693981616946
:103F70007981A169B981E169F981216A3982616A2E
:103F80007982A16AB982E16AF982216B3983616B16
:103F90007983A16BB983E16B04F14004F98307F1E4
:103FA0002007D9D1FFF777BB216A0C3E3982616ABD
:103FB0007982A16AB982E16A3034F98218374FF008
:103FC0000008BEF10C0FFFF466AB00BF2168103E85
:103FD000398061687980A168B980E168F9802169D8
:103FE000398161697981A169B981E169F981216AC0
:103FF0003982616A7982A16AB982E16AF982216BA8
:104000003983616B7983A16BB983E16B04F140045F
:10401000F98307F12007D9D1FFF73DBB8268033B45
:104020000C30ACF804200CF10602032E5AD31E1FEC
:10403000012707EB960717F003052AD00768012D23
:1040400017804768578087689780C768D78005D1F1
:104050000832103033460C2E1ED243E00769022D81
:1040600017814769578187699781C769D78105D1CA
:10407000083B103220300C2E0ED233E0076A0C3B86
:104080001782476A5782876A9782C76A3030D78219
:1040900018320C2E26D300BF0768103B17804768E4
:1040A000578087689780C768D780076917814769F5
:1040B000578187699781C769D781076A1782476ADD
:1040C0005782876A9782C76AD782076B1783476BC5
:1040D0005783876B9783C76B00F14000D78302F14A
:1040E0002002D9D10CEB0100C9F83C020020FCF7FA
:1040F0008FFED9F80000B0F85010D9F8383200F22D
:104100000C423F2B0BD35F0140F2FF36DB0627EA60
:10411000060708BF07F5F84747F4004304E003F03B
:10412000010707EB53039B029BB242F8113043F6A1
:104130000F72018811404BF280025140018000BF94
:10414000D9F80000B0F944100029ADF80810FFF6C6
:1041500033A9B0F84410490535D5B0F8441001250D
:1041600000224023402621F48061A0F84410002161
:10417000D9F85C4420462574FEF77AFC204680215D
:1041800000224023C4F81061FEF772FC84F8FC5151
:104190002662D4F8180228B1D4F8140221794268B2
:1041A0002046904799F82804012802D1D9F8000048
:1041B00009E00021802289F82410D9F80000A0F835
:1041C0004C2089F82814B0F84410490442BFB0F8D4
:1041D000441021F48041A0F84410B0F84410890440
:1041E00042BFB0F8441021F40051A0F84410B0F8D8
:1041F0004410C90417D5B0F8401021F00401A0F80C
:104200004010B0F8401021F00801A0F84010D9F893
:104210005C1491F8FD2181F8FC21B0F8441021F4E0
:104220008051A0F84410B0F84410090529D5B0F821
:10423000401041F00801A0F84010B0F8441021F4FB
:104240000061A0F84410B0F8401041F00401A0F85B
:104250004010B0F84410C90413D4D9F85C1491F894
:10426000FC2181F8FD21042281F8FC21D9F81810E5
:1042700039B14EF61051CEF200010A6842F0060242
:104280000A60B0F84410890513D5B0F8441021F441
:104290000071A0F84410D9F85C1491F8FC21032AAD
:1042A00007D1D1F81422D2691AB108469047D9F83B
:1042B0000000B0F84410C90542BFB0F8441021F422
:1042C0008071A0F8441003B0BDE8F08FB0B50133A1
:1042D0000024B4EB530F00F087805B0800EB420032
:1042E00000F5806013F0030EA3F1010C0BD00A4619
:1042F0000446BEF1010F32F8025B24F8045B1BD1C7
:10430000204663461146BCF1030F6DD3A3F1040CA4
:10431000012202EB9C0212F003023BD00D88012A1D
:1043200005804D8885808D880581CD8885810FD158
:104330000831103063462DE04A88BEF1020F8280BA
:1043400014D1023B04310830BCF1030F4CD3DDE73C
:104350000D89022A05824D8985828D890583CD8943
:1043600085830CD1083B1031203013E08A88033B51
:10437000063102810C30BCF1030F35D3C6E70A8A3F
:104380000C3B02844A8A82848A8A0285CA8A18314E
:1043900082853030BCF10C0F38BFB0BD0A88103BAD
:1043A00002804A8882808A880281CA8882810A893A
:1043B00002824A8982828A890283CA8982830A8A1E
:1043C00002844A8A82848A8A0285CA8A82850A8B02
:1043D00002864A8B82868A8B0287CA8B01F1200172
:1043E000828700F14000D9D1B0BD0000FEE7000097
:1043F00043F2D0570C4605460FA6C2F2000700BF95
:1044000031462A462346FDF739FB38683968091AD0
:10441000B1F57A7FF4D83968091AB1F57A7FEFD807
:104420003968091AB1F57A7FEAD83968091AB1F5FD
:104430007A7FEBD9E4E700BF5F4572726F725F4825
:10444000616E646C65723A202573202325640A002E
:104450002DE9F04F81B00446DDE90A901F4615466C
:104460008B46914202D24FF001081DE04FF0020846
:10447000594600BFB1FBF5F1A94215D3B1FBF5F1E7
:10448000A9420CD3B1FBF5F1A9420BD3B1FBF5F175
:1044900008F10408A942EDD2A8F1010804E008F1EE
:1044A000010801E008F10208B84538BFB84600F03D
:1044B0000101B9F1000F009130D079BB20268007AF
:1044C0004FF0000A48BF30262020002F18BF0646B4
:1044D000C84523D2D4E90121481C904202D908469C
:1044E00007E000BF22685654A060E16862680131AD
:1044F000E160A9F10109904208D121682069FDF726
:10450000D3F9A168884206D1C4F808A0E068B0F1E8
:10451000FF3FDDDC02E04FF0FF30E060E0680028A4
:1045200046DB0126022F07D303E000BF6E43022FB4
:1045300002D3013FFAE700BFBBFBF6F1A942F5D277
:10454000A16835A763684A1CBBFBF6FA9A4207D9F3
:104550000A469A420FD01146002818DA22E000BF1E
:1045600017F80A0023685854A260E06863680130B5
:10457000E0609A42EFD121682069FDF795F9A168C2
:1045800088420CD10021A160E06800280ADBB6FB5C
:10459000F5F20AFB16BBAE421646D3D202E04FF04C
:1045A000FF30E060009A002A18BFB9F1000F02D175
:1045B00001B0BDE8F08F09F101052026013DA845B5
:1045C000F6D263684A1C9A4208D90A469A420ED02B
:1045D0001146B0F1FF3FF1DCEAE700BF2068465426
:1045E000A260E06863680130E0609A42F0D121681F
:1045F0002069FDF759F9A168884206D10021A16020
:10460000E068B0F1FF3FD9DCD2E74FF0FF30E06067
:1046100001B0BDE8F08F00BF30313233343536376A
:10462000383941424344454684B040F61C5942F271
:10463000500142F25004C2F200094846FBF79DFDCA
:1046400043F2A40141F2380042F6947A42F20008A3
:104650004EF60C5240F21C0C44F6D35EC2F200013E
:10466000C2F2000AC4F20208CEF20002C2F2000C4A
:10467000C1F2620E49F8001043F2600141F23400C9
:10468000C2F2000149F8001043F2885141F22C00B7
:10469000C2F2000149F8001041F228000FF68861CB
:1046A00049F8001041F23000262149F804A040F2F8
:1046B000005409F8001043F21C0042F6D871C0F211
:1046C000FA54C2F20000C2F20001A4F50073C9E975
:1046D000031043F248510FF65860C2F20001C9E9D5
:1046E000000125204FF6FF0189F80800D8F80000E6
:1046F00040F01000C8F8000010680840184310602F
:10470000DCF80000A0FB0E034FF0FF3000EB93132A
:104710000020B0EB136F0BD14EF21005CEF2000566
:104720006B60F023D3750723A8602B601368D075E6
:1047300041F20406C4F20206736943F00103736197
:10474000736903F001030093009BB36943F0805346
:10475000B361B36903F080530093009B1368194061
:10476000022321431160116810731168507311689E
:1047700090731168D0741168107511689075116884
:10478000D0750420C4F20100016863F31A6101606E
:10479000306800F00C0004280FD156F8040CB06902
:1047A000C00041D4B069012140F08050B061B069CF
:1047B00000F080500090009837E0306800F00C0066
:1047C000082802D13068C003E7D456F8040C40F43E
:1047D000803046F8040C43F2D050C2F20000016869
:1047E00056F8043C9B03DAD403685B1A642B00F28E
:1047F000D98056F8042C9203D1D40268521A642A44
:1048000000F2D08056F8042C9203C8D40268521AE1
:10481000642A00F2C78056F8042C9203BFD40268C1
:10482000521A642ADCD9BDE0002147F20000C4F22C
:1048300000000368DB0529D4036843F48073036038
:1048400043F2D053C2F200031D6800BF0768FF05A2
:104850001CD41F687F1B642F00F2A4800268D2055D
:1048600014D41A68521B642A00F29C800268D20594
:104870000CD41A68521B642A00F294800268D20594
:1048800004D41A68521B642AE0D98BE0F36941F220
:10489000883743F00103F36143F2D053C2F20003BF
:1048A0001D6800BFF269920719D41A68521BBA42F8
:1048B00078D8F269920712D41A68521BBA4271D89A
:1048C000F26992070BD41A68521BBA426AD8F2698D
:1048D000920704D41A68521BBA42E3D962E0002955
:1048E0001EBFB16921F08051B161316801F00C0146
:1048F000082957D040F2600B0022C4F2422BCBF8BB
:1049000000201D6856F8042C92011CD51A68521B11
:10491000022A47D856F8041C890114D51968491B86
:1049200002293FD856F8041C89010CD51968491B87
:10493000022937D856F8041C890104D51968491B87
:104940000229DFD92EE0326822F400323260326868
:1049500022F4741202F5E81232600122CBF8002032
:104960001D6800BF56F8042C920122D41A68521B0D
:10497000032A17D256F8041C89011AD41968491B56
:1049800002290FD856F8041C890112D41968491B52
:10499000022907D856F8041C89010AD41968491B52
:1049A0000229DFD945F2C750E321C0F60000FFF726
:1049B0001FFDD8F8002012F0060F0CD1D8F8002007
:1049C000022565F30202C8F80020D8F8002002F0A2
:1049D0000702022A34D1326822F0F002326056F81F
:1049E000042C92012CD53268022541F2883765F3F8
:1049F000010232601D6800BF326802F00C02082A12
:104A000025D01A68521BBA421AD8316801F00C013D
:104A100008291CD01968491BB94211D8316801F026
:104A20000C01082913D01968491BB94208D831680C
:104A300001F00C0108290AD01968491BB942DBD9D9
:104A400045F2C750F121C0F60000FFF7D1FCD8F8BD
:104A5000002002F00702032A0CD3D8F80020022518
:104A600065F30202C8F80020D8F8002002F007021F
:104A7000022AE5D13268042565F30A2232603268E1
:104A800022F46052326041F200223568C0F27A02AC
:104A900005F00C07082F17D1C5F383470FF69821AF
:104AA000CF5DE90306D440F60011C0F23D0107FBDB
:104AB00001F209E007FB02F132680FF68C25C2F320
:104AC0004042AA5CB1FBF2F231680FF68025C1F3D7
:104AD0000311695C22FA01F1CCF80010A1FB0E125F
:104AE0004FF0FF3101EB92150022B2EB156F10D1A0
:104AF0004EF210014EF60C54CEF20001CEF200043C
:104B00000F464D60F021E1750721BA6039602168D8
:104B1000E275B169C9000AD4B169012241F080513E
:104B2000B161B16901F080510091009900E000226B
:104B30000168C90525D4016841F4807101601D68D0
:104B40000168C9051DD41968491B642900F2D48481
:104B50000168C90515D41968491B642900F2CC8481
:104B60000168C9050DD41968491B642900F2C48481
:104B70000168C90505D41968491B6429E0D900F00A
:104B8000BBBCF06940F4807000F44070B0F5807FE9
:104B900040F08184F0690121002A4EF60C584FF054
:104BA00000075446CEF2000861F30920F0611EBFF1
:104BB000B06920F08050B061306820F4800030602F
:104BC000DCF80000A0FB0E014FF0FF3000EB91106D
:104BD000B7EB106F0AD14EF21001CEF2000148601F
:104BE000F02088F8170007208F6008604EF2100A46
:104BF00041F2100B4FF400510222CEF2000AC4F22F
:104C0000010BDAF8000040F00400CAF80000D8F800
:104C1000000088F81770706940F0100070617069CA
:104C200000F0100000900098706940F02000706162
:104C3000706900F0200000900098706940F0040056
:104C40007061706900F0040000900098584640F8C8
:104C5000101903920091012101916946FBF750FF61
:104C600030690825802140224FF48043C4F20205B8
:104C700040F001003061306900F0010000900098C0
:104C80002764C4E90053C4E90221C4E9047740F26F
:104C90000C5104224FF48050C4E906704EF6F070B7
:104CA00058444EF20E4BE063CEF2000B286861F3DD
:104CB0000E1028604FF48070C4E90A77C4E90C77BD
:104CC000A76301252084D8F800008BF80070CAF88B
:104CD000F0304FF0FF33D8F800008BF801704FF43C
:104CE0000040CAF8F000D8F80000C0F30220C11E4E
:104CF00080F0070038BF0021042828BF104603FABF
:104D000000F025EA0000884000018BF802004FF413
:104D10008030CAF8F000D8F80000C0F30220C11EAD
:104D200080F0070038BF0021042838BF024603FA8C
:104D300002F00C2325EA000045F600458840C4F245
:104D400000054FF4E1310001A5F5C0528BF80300D6
:104D50004FF40030CAF8F00043F28850C2F200006D
:104D6000C0E90021C0E90277C0E90473C0E9067711
:104D7000FCF7D2FA002840F0C68342F6705043F2A6
:104D8000E803012203274FF00808C2F20000C2F234
:104D90000003D0F8141200291CBF0021C0F814121F
:104DA00080F8FC21C3F85C0440F20001C2F200016B
:104DB000C0F8101200210170C0F820320220C3E9AF
:104DC00006111962C3E90058C3E9020793F82944A0
:104DD000D4B983F82814B56945F40005B5614EF2DD
:104DE0001005B669CEF2000506F400060096009E96
:104DF0004EF60C56CEF2000636688BF806104FF4CD
:104E00008016C5F8F0601D6883F8297444F2FF2409
:104E10004FF0060E4FF0070C4FF0090A4FF00A0B47
:104E2000B5F8406026400224A5F840604FF4807633
:104E300099860E251E8540F20116C3E90E111964EC
:104E400083F82B10A3F85420A3F848604FF4817620
:104E5000C3E91611196683F84B10A3F874000420F7
:104E6000A3F868604FF4827683F88920C3E91E11A5
:104E7000C3F8801083F86B10A3F8947083F88870DF
:104E8000C3E92611C3F8A010A3F8A86083F88B101B
:104E9000A3F8B40040F205160520C3E92E11C3F8AB
:104EA000C010A3F8C86083F8AB10A3F8D400C3E91E
:104EB0003611C3F8E01083F8E92083F8CB10A3F88B
:104EC000F4E083F8E8E083F80921C3E93E11C3F870
:104ED000001183F8EB10A3F814C183F808C183F81C
:104EE0002921C3E94611C3F8201183F80B11A3F857
:104EF000348183F828810B260C204FF00D0883F8AD
:104F00004921C3E94E11C3F8401183F82B11A3F8CE
:104F100054A183F848A183F86921C3E95611C3F865
:104F2000601183F84B11A3F874B183F868B183F86A
:104F30008921C3E95E11C3F8801183F86B11A3F8CE
:104F4000946183F8886183F8A921C3E96611C3F8E5
:104F5000A01183F88B11A3F8B40183F8A80183F89A
:104F6000C921C3E96E11C3F8C01183F8AB11A3F8CE
:104F7000D48183F8C88183F8E921C3E97611C3F8A5
:104F8000E01183F8CB11A3F8F45183F8E85183F8CA
:104F90002912C3E97E11C3F8001283F8EB1183F8DC
:104FA000281283F84912C3E98E11C3F8401283F81E
:104FB0002B12998683F8482283F86912C3E9961167
:104FC000C3F8601283F84B12A3F8542083F86842A8
:104FD00083F88912C3E99E11C3F8801283F86B121B
:104FE000A3F87440042483F8887283F8A912C3E9F3
:104FF000A611C3F8A01283F88B12A3F894700820AE
:1050000083F8A84283F8C912C3E9AE11C3F8C012ED
:1050100083F8AB12A3F8B440052483F8C84283F8A0
:10502000E912C3E9B611C3F8E01283F8CB12A3F872
:10503000D44083F8E8E283F80913C3E9BE11C3F84A
:10504000001383F8EB12A3F8F4E083F808C383F8A5
:105050002913C3E9C611C3F8201383F80B13A3F86F
:1050600014C14FF00C0C83F8280383F84913C3E9EB
:10507000CE11C3F8401383F82B13A3F8340183F83F
:1050800048A383F86913C3E9D611C3F8601383F802
:105090004B13A3F854A183F868B383F88913C3E9C9
:1050A000DE11C3F8801383F86B13A3F874B183F88F
:1050B000886383F8A913C3E9E611C3F8A01383F842
:1050C0008B13A3F8946142F6705083F8A8C383F859
:1050D000C913C3E9EE11C3F8C01383F8AB13A3F8E7
:1050E000B4C183F8C88383F8E913C3E9F611C3F8A0
:1050F000E01383F8CB13A3F8D48183F8E853C3E912
:10510000FE11C3F8001483F8EB13A3F8F451C2F2B4
:1051100000001F68A7F84020A7F84010A7F8441027
:10512000A7F85010B7F8406046F43F46A7F8406033
:1051300083F8241083F829242823D0F82022A2F809
:105140002C32602382F8321282F8321082F8521028
:105150009385C02382F85212A2F84C304FF4887322
:10516000A2F84C324FF4807382F8721082F89210D9
:10517000A2F86C304FF4C07382F89212A2F88C300F
:105180004FF4E073A2F88C3282F8B2104FF4E87159
:10519000A2F8AC1040F22821C2F20001C0F81C12A3
:1051A00040F22001C2F20001C0F8141292F8280463
:1051B000012809D01068B0F8401041F43F41A0F830
:1051C0004010002082F8280441F2100243F24854B3
:1051D00042F2F0714FF4E1300023C4F20102C2F256
:1051E00000041144C4E900102046C4E90233C4E9B4
:1051F000043CC4E90633FCF78FF84EF60C5640F237
:1052000000524EF20E450028CEF20006C0F2FA52CD
:10521000CEF2000540F07F8130684FF6FF01032396
:1052200042F24C0808401043022230603068C0F35C
:105230000220C11E4FF0FF3000FA01F122EA010105
:1052400038BF0021090169713168C1F302210339B6
:1052500000FA01F123EA010138BF00210901A97117
:105260003168C1F30221033900FA01F34FF0010163
:1052700021EA030338BF00231B01EB753368C3F336
:105280000223033B00FA03F321EA030338BF0023A0
:105290001B012B763368C3F30223033B00FA03F3AD
:1052A00022EA030238BF0022120105F8032C3268FB
:1052B000C2F30222D31E82F007074FF0040238BF68
:1052C0000023042F28BF174600FA07F721EA070733
:1052D0009F4000FA03F321EA03033B431B012B70B9
:1052E0003368C3F30223DF1E83F0070338BF0027B0
:1052F000042B28BF134600FA03F321EA0303BB4043
:105300001B016B703368C3F30223DF1E83F00703B6
:1053100038BF0027042B28BF134600FA03F321EA05
:105320000303BB4000FA07F721EA07073B431B01D1
:10533000AB703368C3F30223DF1E83F0070338BF6B
:105340000027042B38BF1A46904021EA0000B840DD
:105350000001E87020680024C16821F40051C16098
:1053600043F28850C2F200000068C16821F4005185
:10537000C16041F63C0009EB000541F23C0009EB3D
:10538000000A06E041F210004FF00051C4F20100A3
:10539000016041F2240059F800B04FF4815059F8EF
:1053A0000000834516D009F1140000EB8B2600EBBA
:1053B0008B0000F5805700BF398830460022FBF78C
:1053C0004DF80128F8D0BBFA8BF041F224014009D6
:1053D00049F8010041F21C0059F80060012E0FDB72
:1053E00041F2240049F8004041F21C0049F8004015
:1053F00009F61400B1B20022FBF730F80128F7D00B
:1054000042F2480059F8087059F80000874212D05B
:105410000AEB87000AEB872600F580542188304686
:105420000222FBF71BF80128F8D0B7FA87F0002416
:10543000400949F8080042F2440059F80060012E82
:105440000DDB42F2440049F8084049F8004000BF33
:10545000B1B228460222FBF701F80128F8D043F246
:10546000C850C2F200000078002892D043F2CC501D
:10547000C2F20000006800063FF584AF41F2100060
:105480004FF40051C4F20100016043F2C850C2F26F
:10549000000004707DE7F0690121CBF8E0130021E2
:1054A000CBF8E01320F44071C007F1613FF472AB18
:1054B000186841F2883100BFF569AD073FF56AAB66
:1054C0001D682D1A8D4217D8F469A4073FF562AB09
:1054D0001C68241A8C420FD8F469A4073FF55AAB14
:1054E0001C68241A8C4207D8F469A4073FF552AB14
:1054F0001C68241A8C42DFD945F2C750F921C0F646
:105500000000FEF775FF45F2C75040F22911C0F6C2
:105510000000FEF76DFF45F2C7504FF48B71C0F6E7
:105520000000FEF765FF00BF5541525432000000F5
:1055300055415254310000000203040506070809D2
:105540000A0B0C0D0E0F10100102000000000000ED
:1055500000000000010203040607080902E008C871
:10556000121F08C1002AFAD170477047002001E0DD
:1055700001C1121F002AFBD1704700000000010288
:1055800003044C494E455F434F44494E473A20552A
:105590004152543D25732C20626974726174653DDB
:1055A00025642C20666F726D61743D25642C20701B
:1055B00061726974793D25642C2064617461747929
:1055C00070653D25640A002E2E2F5372632F6D6186
:1055D000696E2E63005465726D696E616C00000027
:1055E0000056000800000020400200009001000862
:1055F000F056000840020020983B00006C5500085F
:1056000013D527140809281B0819041A35041A553C
:10561000041AB5141AE5041116A24A04E1251B0860
:1056200021041BDD2610311A6D0C1BC9241019042E
:10563000C11AC1181AB1041AD1041AA1041409021A
:105640008D13040115C032080B200802020201026A
:1056500009041A010911130524161001052401106B
:105660000901042402020524061701070582030824
:105670001B10093133020A2E0705010240072A8157
:10568000071B080B413942DA02425A03424E020319
:10569000070584426A03424A03422A830731093FCD
:1056A00090113A029019070943901B0A064A212BD0
:1056B00040019C13078D0E20020104C03294BAFFF2
:1056C0009439525A8152014A1A12631809EF0201A1
:1056D000408334B90B991B0203A51AEDF81AE904AB
:1056E00013ED01140819032C080403AD2100000078
:04000005080000ED02
:00000001FF
